:020000040800F2
:10000000D05A0020D50300085358000821400008AA
:10001000A94C000861210008956B00080000000051
:1000200000000000000000000000000015030008B0
:10003000FB3D000800000000710300081162000889
:10004000056F0008EF030008EF030008EF03000846
:10005000EF030008EF030008EF030008EF030008B8
:10006000EF030008EF030008EF030008EF030008A8
:10007000EF030008EF030008EF030008EF03000898
:10008000EF030008EF030008EF030008A1210008B8
:1000900065210008EF030008EF030008EF030008E4
:1000A000EF030008EF030008EF030008EF03000868
:1000B000EF030008EF030008EF030008EF03000858
:1000C000EF030008EF030008EF030008EF03000848
:1000D000EF03000879670008DD67000889680008F9
:1000E000EF030008EF030008EF030008EF03000828
:1000F000EF030008EF030008EF030008EF03000818
:10010000EF030008EF030008EF030008EF03000807
:1001100019670008EF030008EF030008EF03000869
:10012000EF030008EF030008EF030008EF030008E7
:10013000EF030008EF030008EF030008392200086E
:10014000BD210008EF030008EF030008EF030008DB
:10015000EF030008EF030008EF030008EF030008B7
:10016000EF030008EF030008EF030008EF030008A7
:10017000EF030008EF030008EF030008EF03000897
:10018000EF030008EF03000800F002F800F0B2F8F7
:100190000AA090E8000C82448344AAF10107DA45E2
:1001A00001D100F0A7F8AFF2090EBAE80F0013F082
:1001B000010F18BFFB1A43F0010318473CAA0000C7
:1001C0005CAA00000A444FF0000C10F8013B13F049
:1001D000070408BF10F8014B1D1108BF10F8015BA0
:1001E000641E05D010F8016B641E01F8016BF9D193
:1001F00013F0080F1EBF10F8014BAD1C0C1B09D1EA
:100200006D1E58BF01F801CBFAD505E014F8016B5B
:1002100001F8016B6D1EF9D59142D6D370470000ED
:100220000023002400250026103A28BF78C1FBD8FF
:10023000520728BF30C148BF0B6070476E2900F0DD
:100240000884702900F06185662909F0A98665296E
:1002500009F0A686672909F0A386612909F0A2861C
:1002600003681B0A28BF41F08001692900F09481CE
:10027000642900F09181752900F08E816F2900F0CA
:10028000EE84782900F02D85E92900F08984E4299D
:1002900000F08684F52900F08384EF2900F0EB84D8
:1002A000F82900F02C850368DB0928BF41F08001A4
:1002B000632900F00A84732900F00F84E32901F018
:1002C0000B81F32901F01081002070471FB509F060
:1002D000B3FD01F05BF904000020002109F0D6FB1A
:1002E000401C60600020002109F0BAFBE0601FBDE7
:1002F00010B510BD01F01CF91146FFF7E7FF07F03C
:10030000EDFC01F0F9F903B4FFF7F2FF03BC01F0D3
:1003100061FA00002C4B19680868B0E8F04F80F3D0
:100320000988BFF36F8F4FF0000080F3118870478A
:100330000000000008480068006880F308884FF05B
:10034000000080F3148862B661B6BFF34F8FBFF32D
:100350006F8F00DF00BF00BF08ED00E0DFF80C008A
:10036000016841F470010160704700BF88ED00E052
:10037000EFF30980BFF36F8F134B1A681EF0100F55
:1003800008BF20ED108A20E9F04F106009B44FF04B
:10039000500080F31188BFF34F8FBFF36F8F08F0C9
:1003A00097FD4FF0000080F3118809BC19680868B8
:1003B000B0E8F04F1EF0100F08BFB0EC108A80F3C9
:1003C0000988BFF36F8F704738060020EFF3058070
:1003D000704700000948804709480047FEE7FEE7EC
:1003E000FEE7FEE7FEE7FEE7FEE7FEE7FEE7FEE7E5
:1003F00004480549054A064B70470000456200085D
:1004000089010008D0540020D05A0020D056002086
:10041000D05600209FED1A1AF5EE000A40EE010AB0
:10042000BDEEE00AF5EEC00A10EE100AF1EE10FA89
:1004300038BF401E00EE100A1349F7EE001AB8EE5E
:10044000C00A30EEC00ADFED0F0A20EE200AFCEEF3
:10045000C00A10EE900AC0F3080000EE900A01EB0B
:100460008000F8EE600A90ED011A70EE600A90EDDF
:10047000000A71EEE01A21EE800A00EE810A704750
:1004800083F9223E00000044F4A20008B5EEC00A41
:10049000F1EE10FA07D2DFED1E0AB4EEE00AF1EE3B
:1004A00010FAA8BF7047DFED1B0AB5EEC00A60EE78
:1004B000200ABDEEE01A11EE100AF1EE10FA38BF74
:1004C000401E00EE100A1549F7EE001AB8EEC00AF9
:1004D00030EEC00ADFED100A60EE200ABCEEE00A42
:1004E00010EE100AC0F3080000EE100A01EB8000C5
:1004F000B8EE400A90ED011A70EEC00A90ED000AC5
:1005000071EEE01A21EE800A00EE810A70470000C9
:10051000CD024CB483F9223E00000044F4A200084E
:100520001CB50C46064B7B4469460090204600F003
:10053000AAFA04460020694600F0B8FA20461CBD1D
:100540008305000070B50C460546012A05D02878C1
:10055000800600D5EA69002302E0012305E05B1C68
:10056000934202D2E05C0028F9D1A869E618C01ACB
:10057000A861286A18442862284600F0D8F904E0E7
:10058000D5E9012114F8010B9047B442F8D328466D
:1005900000F0E3F970BD00002DE9F04106460024AB
:1005A00010687529314616A510D000F0E7F900282B
:1005B00002DA404213A507E031688A0701D512A587
:1005C00002E0490704D511A5012401E000F0DFF99C
:1005D00000210A2206F1240709E0B0FBF2FCB0FB7F
:1005E000F2F302FB1C00303078541846491C0028F6
:1005F000F3D123462A463046BDE8F04100F0D0B999
:10060000000000002D0000002B0000002000000072
:100610002DE9F05F894604464FF0000ADFF874B117
:10062000FB44C0F820A02046E1688847002874D029
:10063000252806D0D4E901219047206A401C206279
:10064000F1E700265F462046E168884720280546F6
:1006500007DB312D05D2781910F8200C08B10643BC
:10066000F1E7B00701D526F00406C4F81CA0002766
:10067000C4F818A02A2D09D0284607F027FB38B364
:1006800004EB8708303DC8F8185019E059F8041BEE
:10069000204604EB87029161E1688847012F0546F7
:1006A00018D1E069002820DA26F020061DE0D8F8ED
:1006B000180000EB800005EB40003038C8F8180047
:1006C0002046E1688847054607F000FB0028EED188
:1006D000012F0AD02E2D08D12046E16888477F1CC3
:1006E0000546022F46F02006C4DBA069002803DA85
:1006F000404246F00106A061F00701D026F0100646
:100700006C2D0BD0682D09D04C2D39D06A2D35D0E9
:10071000742D35D07A2D33D016E038E0E1682F46BD
:1007200020468847B842054609D16C2F26D04FF4A1
:100730008060E168064320468847054604E06C2F48
:100740001AD04FF4807006430DB3A5F1410019286B
:1007500002D8203546F400664A46294620462660DF
:100760004E46FFF76BFD80B101280BD0F61D26F039
:10077000070000F1080956E74020E4E78020D8E7A9
:100780000020D6E706F104094DE7284652E7206A23
:10079000BDE8F09FD4A40000032A40F2308010F09E
:1007A000030C00F0158011F8013BBCF1020F62440C
:1007B00098BF11F801CB00F8013B38BF11F8013B9D
:1007C000A2F1040298BF00F801CB38BF00F8013B4A
:1007D00011F0030300F02580083AC0F0088051F8BA
:1007E000043B083A51F804CBA0E80810F5E7121DC5
:1007F0005CBF51F8043B40F8043BAFF30080D207E4
:1008000024BF11F8013B11F801CB48BF11F8012BAF
:1008100024BF00F8013B00F801CB48BF00F8012BD2
:10082000704710B5203AC0F00B80B1E81850203A5C
:10083000A0E81850B1E81850A0E81850BFF4F5AF80
:100840005FEA027C24BFB1E81850A0E8185044BF0A
:1008500018C918C0BDE810405FEA827C24BF51F877
:10086000043B40F8043B08BF7047D20728BF31F86B
:10087000023B48BF11F8012B28BF20F8023B48BFBC
:1008800000F8012B704702F0FF0343EA032242EA1B
:10089000024200F002B84FF000020429C0F01280BA
:1008A00010F0030C00F01B80CCF1040CBCF1020F23
:1008B00018BF00F8012BA8BF20F8022BA1EB0C01F8
:1008C00000F00DB85FEAC17C24BF00F8012B00F8EE
:1008D000012B48BF00F8012B70474FF0000200B514
:1008E000134694469646203922BFA0E80C50A0E853
:1008F0000C50B1F12001BFF4F7AF090728BFA0E801
:100900000C5048BF0CC05DF804EB890028BF40F8CC
:10091000042B08BF704748BF20F8022B11F0804F0E
:1009200018BF00F8012B704770477047704770B5CB
:10093000044685690068C10601D5302600E02026FE
:10094000C00707D070BDD4E9012130469047206A26
:10095000401C20626D1EF6D570BD70B504468569D9
:100960000078C00707D170BDD4E90121202090474D
:10097000206A401C20626D1EF6D570BD09684A05CC
:1009800001D540B27047C905FCD500B2704709686F
:100990004A0501D5C0B27047C905FCD580B2704781
:1009A0002DE9F0470D4699469246044600F1240889
:1009B0000168880604D5E06921F01001216000E09B
:1009C0000120A84201DD471B00E00027A1697A1938
:1009D00002EB0900081AA0612078C00602D4204664
:1009E000FFF7A5FF002608E0D4E901211AF8060068
:1009F0009047206A401C761C20624E45F4DB20782C
:100A0000C0060AD52046FFF792FF06E0D4E901218F
:100A100030209047206A401C2062381EA7F1010751
:100A2000F4DC07E0D4E9012118F805009047206ABA
:100A3000401C2062281EA5F10105F3DC2046FFF7CB
:100A40008CFF2078000602D50220BDE8F087012047
:100A5000FBE711680268006A530501D508700AE0D7
:100A6000D30501D5088006E0130603D5C217C1E9F6
:100A7000000200E0086001207047000001694A1C84
:100A800002610878704700B58FB0CDE901310021CF
:100A9000059105497944CDE9031011466846FFF7F1
:100AA000B7FD0FB000BD0000E5FFFFFF0A6802F8C8
:100AB000010B0A60704710B5436913B1AFF30080B2
:100AC00001E0FFF73FFD012010BD127800F1240185
:100AD0000A7000224A700122EDE711684FF0FF32E0
:100AE000E9E700002DE9FF5F15468A460446DFF876
:100AF000AC80F8440027D8E900103E46CDE900104C
:100B000010E03AF816106A4602A800F0F1FC411C09
:100B100007D02178890603D5E269391891420DD8AA
:100B20000744761C2078800602D5E069B84205DDCE
:100B3000AE42E6DB3AF816000028E2D1A069C01BFD
:100B4000A0612046FFF7F3FED8E90010CDE90010C0
:100B5000002017E03AF818106A4602A800F0C8FC16
:100B6000B0F1FF3F81460BD000250DF1080B05E0E9
:100B7000D4E901211BF8050090476D1C4D45F7D3C2
:100B800008F10100B0428046E4DB206A384420626C
:100B90002046FFF7E2FEBDE8FF9F000016A0000020
:100BA0002DE9F0418046D21D22F007020025D2E94E
:100BB0000002F52915A614D0011E72F1000106DA13
:100BC0000023D0EB030063EB020211A608E0D8F883
:100BD00000108B0701D50FA602E0490701D50EA62C
:100BE00001251146002408F1240704E000F098F8DC
:100BF00030323A55641C50EA0102F7D12B46324696
:100C000021464046BDE8F041FFF7CABE00000000A3
:100C10002D0000002B0000002000000030B4002157
:100C200000F1240408E002F00705D208303542EA5A
:100C30004372DB086554491C52EA0305F3D104688A
:100C4000002310A2250707D5A40600D421B1C4694A
:100C500001230DA2641EC46130BCFFF7A1BE10B514
:100C6000044621461068FFF792FE02462046BDE882
:100C700010400023D2E7D21D22F00701D1E9002362
:100C8000CCE700000000000030000000F0B40D468A
:100C90000188090502D5214C7C4402E01F4C7C44AC
:100CA0000E34002100F1240608E002F00F071209BB
:100CB000E75D42EA03721B097754491C52EA0307B5
:100CC000F3D102780023120704D5702D06D009B1A4
:100CD000022311342246F0BCFFF762BE0123103418
:100CE000F8E770B504460D4621461068FFF74FFE41
:100CF000024629462046BDE870400023C6E7D21DC3
:100D000022F00703D3E90023C0E70368126843F029
:100D1000200303600823C3610023B7E7789E000027
:100D200030B5B0F10A024FEA900E71F100034EEABD
:100D3000817EB0EB0E0061EB91014FEA101E4EEA8E
:100D4000017E10EB0E0041EB11114FEA102E4EEA1E
:100D5000016E10EB0E0041EB11214FEA104E4EEAEE
:100D6000014E10EB0E0041EB1141401841F1000122
:100D70004FEAD00040EA41704FEAD10110EB800504
:100D80004FEA810444EA907444EB01046D1944EB8A
:100D90000404521BA3414FF0000348BF0A3200D5A0
:100DA00030BD401C41F1000130BD70472DE9FF4FBF
:100DB0000C461E464FF0FF378BB0D2E90001DDF83C
:100DC00060800A908A46C1F30A5505B93D46002164
:100DD000084609F0D5F8BAF1000F00F4400005DA32
:100DE00000EB80004FF4400101EA50004FEA9059B7
:100DF000B9F1010F00DDB9460A9850EA4A000ED059
:100E000044F61050A5F2FF3545432F14B8F1000FFA
:100E10001ED07542291E1EDDC9F100021CE0B8F18A
:100E2000010F4FF0000001D0302103E0F24305E054
:100E30002154401CB042FBDB3046002200212154EB
:100E40000B99C1F80880C1E900200FB0BDE8F08F10
:100E5000BD1B6D1CDEE74A4600DA694206A800F0B9
:100E6000D9FB06AB93E8070003AB83E807005046C5
:100E70000A9900F032FD8DE80700A0F500501F38F8
:100E800000900398002D0ADD42F21F014A460844F3
:100E9000002303A90390684600F09BFF09E0A0F53A
:100EA00000504A461F38002303A90390684600F00B
:100EB000A5FF8DE807000004000C03D04FF0FF30C1
:100EC000410800E01046B8F1000F03D00022009264
:100ED00015461EE0751E05D4FFF722FF303262551D
:100EE0006D1EF9D5B3460122084302D000227F1CB3
:100EF00004E02078302801D100227F1E002A0997C3
:100F000084D01DE0112D07DAFFF70AFF3032625559
:100F10006D1C50EA0102F5D1084302D00098C8B117
:100F20000EE00021681E05E0235C625C63542254DD
:100F3000401E491C8142F7DBAB46A81B401E0990AE
:100F4000002004F80B000B98099AC0F80880C0E94B
:100F5000002B7AE711264FF0000857E72DE9F04FF4
:100F600088460446D21D22F0070191B0D1E9000164
:100F7000CDE90A0106F061FD02460B98C00F01D0D1
:100F80002D2007E02068810701D52B2002E02021D9
:100F900001EAC000032A099001D0072A05DB0346B5
:100FA0004146204600F0F6FA0BE12078800601D594
:100FB000E06900E00620B8F1650F814606D0B8F17F
:100FC000660F18D0B8F1670F70D131E00020B9F189
:100FD000110F009001DB112301E009F101030AAABE
:100FE00001A90CA8FFF7E2FEDDE90C70002609F16B
:100FF0000105834647E001204B4600904FF0004733
:101000000AAA01A90CA8FFF7D1FEDDE90DB00C99E1
:101010005D46002610B909F101000D18B9EB050075
:1010200003D4C0F1FF3609F10105A5EB09002BE05F
:10103000B9F1010F01DA4FF001090020B9F1110FE8
:101040000090484601DD112300E003460AAA01A9E9
:101050000CA8FFF7ABFEDDE90C704D460026834679
:10106000207800070AD4AB4500DA5D4601A8012DBF
:1010700004DD411911F8011C302907D04F4502DA6F
:1010800017F1040F04DA012082460FE06D1EEEE72F
:10109000002F02DCED1B3E4403E0781CA84200DD7B
:1010A0007D1CB81B00F1010A4FF0004720780007B3
:1010B00003D4AA4501DB4FF0FF3A0021B7F1004FFE
:1010C0000DF143088DF8431024D002202B23002F6C
:1010D00001DA7F422D230A21021EA0F1010000DC6B
:1010E0005FB197FBF1FC97FBF1F201FB1C7C17460B
:1010F0000CF1300C08F801CDEEE7A8F10100037007
:101100002188090501D5452100E06521A0F10108EC
:1011100000F8011C09980FA9A1EB0807FF1D00B1F9
:101120000120411901EBEA70A1693844081A401EF8
:10113000A0612078C00602D42046FFF7F8FB09988A
:1011400028B1D4E901219047206A401C2062207810
:10115000C00622D52046FFF7EAFB1EE0002E04DB86
:10116000B34502DD01A8805D00E03020D4E9012113
:101170009047206A401C2062761CAAF101005FEAB9
:10118000000A0AD100F002FAC0680168405CD4E9A4
:1011900001219047206A401C2062281EA5F101050C
:1011A000DCDC07E0D4E9012118F8010B9047206A44
:1011B000401C2062381EA7F10107F3DC2046FFF730
:1011C000CCFB032011B041E62DE9F04F04460D465B
:1011D000D21D22F0070089B0D0E900974846394671
:1011E00006F02BFC0246F80F01D02D2307E0206803
:1011F000810701D52B2302E0202101EAC0038DF8ED
:1012000020300BB1012000E00020032A824601D0EB
:10121000072A04DB2946204600F0BCF93FE120788C
:10122000800601D40D2500E0E569C7F30A560D2DAF
:1012300049DA00214FEA175B084608F0A1FE002FAB
:1012400000F4400007DA00EB80004FF4400100EBAF
:10125000D07001EA60008115012901DD4FF0FF31F6
:1012600000224FEA850CBCF1180F06D31346ACF1EF
:1012700018004FF08052C24003E04FF4801323FA6D
:101280000CF30CF10C0CBCF1200F04D3ACF1200CCE
:1012900009FA0CF001E007FA0CF000294FF00048C1
:1012A00001DD18B90FE00ED140450CD319EB02094E
:1012B0005F4121B9404502D19F4329EA0209BBEBB6
:1012C000175F00D0761C2088000502D57B48784443
:1012D00002E07A487844193808AA302302F80A3024
:1012E000037C0AF10101002E0AF1020A53546A46F6
:1012F00002DC4FF0300101E04FF031014FF0010806
:101300008DF8001002D0A6F2FF3603E059EA47013B
:1013100000D06B4E002D02DC2178090704D54FF078
:1013200002082E218DF80110C44600210BE0C7F3FE
:1013300003433F01C35C491C6D1E02F808300529B8
:1013400008F1010801DA002DF1DC00210CE000EBCE
:101350001973491C1B786D1E082902F808304FEAE2
:10136000091908F1010801DA002DF0DC21688B066B
:1013700002D516E0A8F10108E04505DD02EB0803FF
:1013800013F8013C302BF5D0B8F1000F09DD02EB6A
:10139000080313F8013C2E2B03D1090701D4A8F14F
:1013A0000108002D05DD3E2102F808106D1E08F130
:1013B0000108407C002E02F8080008F1010804DA58
:1013C0002D20764202F8080002E02B2002F80800E7
:1013D0000A214FF47A70864208F101080BDB96FB74
:1013E000F0F3303302F8083096FBF0F308F101080F
:1013F00000FB136601E0642E0CDB642096FBF0F327
:10140000303302F8083096FBF0F308F1010800FBD6
:10141000136601E00A2E06DB96FBF1F0303002F88D
:10142000080008F1010896FBF1F001FB1060303074
:1014300002F80800A16908F1010808EB050202EBB7
:101440000A00081AA0612078C00602D42046FFF7DF
:101450006EFA216A08AE01EB0A00206204E0D4E9CA
:10146000012116F8010B9047BAF1010AF7D2207852
:10147000C00602D52046FFF75AFA6E4609E016F874
:10148000010B3E280FD0D4E901219047206A401C6F
:101490002062B8F10108F2D22046FFF75EFA09B0E7
:1014A0000320BDE8F08F206A2844206203E0D4E9DD
:1014B0000121302090476D1EEBD3F8E77D980000A6
:1014C00002FCFFFF10B5436913B1AFF3008001E0E8
:1014D000FFF708FB012010BD128800F1240182846F
:1014E0000022C2840122EDE711684FF0FF32E9E7E4
:1014F00070B516460C46054600F040F8036893F8B0
:101500000101012806D0FF2C0FD8185D68B1012019
:101510002C7070BDD3F807013246214603F2071341
:1015200003442846BDE8704018474FF0FF3070BDB7
:10153000754600F0EBF8AE4605006946534620F0CC
:101540000700854618B020B5FEF752FFBDE82040E1
:101550004FF000064FF000074FF000084FF0000B6F
:1015600021F00701AC46ACE8C009ACE8C009ACE822
:10157000C009ACE8C0098D467047000010B500F006
:1015800005F8001D10BD00BF05850000004870472C
:101590008C5400202DE9F0411F46044603260168C3
:1015A000072A01F4006004DB08B116A505E016A5C2
:1015B00003E008B115A500E015A521F0100020609A
:1015C000A069C01EA0610FB1401EA0612046FFF7B8
:1015D000AEF94FB1D4E9012138469047206A401C4A
:1015E0002062C01C206206E0206AFAE7D4E90121EB
:1015F00015F8010B9047761EF8D22046FFF7ADF99B
:10160000BDE8F0814E414E006E616E00494E4600CD
:10161000696E66002DE9F047814616468AB0354866
:1016200078440DC88DE80D0032487844801C03AC26
:101630000DC884E80D0041F69B300844372190FB2B
:10164000F1F290FBF1F5A5F1800501FB12041B3CC2
:1016500002D56442012000E00020DFF898A0804617
:101660000027FA44AAF1BE0A0EE0E0070AD032468B
:10167000684607EB470101230AEB810100F0BEFB3E
:101680008DE8070064107F1C002CEED1194F7F44B9
:10169000AE3F19E0E80715D007EB04100DF1180A6A
:1016A00090E80E008AE80E00C068F04201D1981957
:1016B00008903246012306A903A800F09FFB03AB64
:1016C00083E807006D10641C002DE3D14FF0010387
:1016D00032466946B8F1000F03A802D000F079FB4A
:1016E00001E000F08BFBC9E90001C9F808200AB04D
:1016F000BDE8F087BC95000010B50446AFF300804C
:101700002046BDE81040FEF7FEBD000000487047CF
:101710006C5400201FB584B000200A9C06AB04AABC
:1017200002A90094AFF3008018B1DDE9020108B00E
:1017300010BD0348204000F045F800200146F6E7C0
:101740000000207C4FF0013C50F8042B51F8043B82
:101750009A4221D1A2EB0C03934313EACC1317D185
:1017600050F8042B51F8043B9A4215D1A2EB0C031C
:10177000934313EACC130BD150F8042B51F8043BDC
:101780009A4209D1A2EB0C03934313EACC13DBD0AA
:101790004FF00000704700BFD01A01BAB1FA81F1D2
:1017A00001F0180122FA01F0CB40C1F12001DBB2B7
:1017B000C0B2C01A2CFA01F3D11A914311EAC31135
:1017C000E6D1704710B500F011F8BDE8104000F008
:1017D00007B8000001491820ABBEFEE72600020052
:1017E000002801D0FFF7F6BF7047000010B50228AF
:1017F00003D0410103D50DA112E0002010BD01016D
:1018000001D50FA10CE0C10001D511A108E08100B4
:1018100001D512A104E0400001D513A100E0002190
:1018200015A000F03AF8012010BD0000496E766165
:101830006C6964204F7065726174696F6E0000009E
:10184000446976696465204279205A65726F0000A8
:101850004F766572666C6F7700000000556E6465A8
:1018600072666C6F77000000496E65786163742062
:10187000526573756C7400005349474650453A20D1
:1018800041726974686D6574696320657863657019
:1018900074696F6E3A200000704770B505460C46BB
:1018A0000A2000E06D1C00F011F835B128780028FE
:1018B000F8D102E0641C00F009F814B12078002887
:1018C000F8D1BDE870400A20AFF3008008B5694642
:1018D0008DF800000320ABBE08BD5FEA400C08BFD6
:1018E00091F0000F4FEA8C234FEAC12243EA515195
:1018F0004FEA1C5018BF00F5F0404FEA300018BF07
:1019000041F000415FEA6C5C00F02980BCF1FF3FD0
:1019100008BF40F080407047130C06BF12044FF020
:10192000100C4FF0000C130E04BF12020CF1080C47
:10193000130F04BF12010CF1040C930F04BF9200AB
:101940000CF1020CD30F04BF52000CF1010C114634
:101950004FF00002A0F11F00A0EB0C00704711F047
:10196000004F08BF704731F000413FF4D5AF0B0C7A
:1019700006BF09044FF0100C4FF0000C0B0E04BF13
:1019800009020CF1080C0B0F04BF09010CF1040C47
:101990008B0F04BF89000CF1020CCB0F04BF490070
:1019A0000CF1010CCCF12003A0EB0C0022FA03F3A4
:1019B00002FA0CF241EA030100F10100704720F045
:1019C0007F4C80EA030023F07F47ACEB070303F56D
:1019D0007C5300F0004003F1FF032DE980494FEAFA
:1019E000154B09B44FEA144325EA0B4E24EA034889
:1019F0000FF2042606EB132749083E785FEA32020D
:101A000003FB0667C7F5000707FB06F64FEA5437E6
:101A10004FEAD64606F1020607FB066CCCF1005CE5
:101A20004FEA1C472CEA074C07FB06F40CFB06F5B3
:101A300004EB15464FEA961634BF00204FF00040E5
:101A40004FEAD13706FB07FC4FEA1C4C0CFB0BF7A7
:101A5000D21B03FB0CF761EB07010CFB0EF7B0EB9D
:101A6000074072EB17420CFB08F734BFA2EB0742AA
:101A7000B2EB074261EB17414FEA0C444FEA910782
:101A800006FB07FC4FEA1C4C0CFB0BF7B0EBC74006
:101A900072EB573203FB0CF734BFA2EBC742B2EB39
:101AA000C74261EB57310CFB0EF7B0EBC70072EB8E
:101AB00057720CFB08F734BFA2EBC702B2EBC702A8
:101AC00061EB5771039F4FEA816141EA921104EB88
:101AD000CC044FEAD1374FEA826206FB07FC42EAA8
:101AE00090124FEA80604FEA1C4C0CFB0BF7D21BA4
:101AF00003FB0CF761EB07010CFB0EF7B0EB0740A3
:101B000072EB17420CFB08F734BFA2EB0742B2EBB3
:101B1000074261EB17414FEA8C554FEA910704EBFE
:101B20009C2406FB07FC4FEA1C4C0CFB0BF7B0EBAC
:101B3000C74072EB573203FB0CF734BFA2EBC7422E
:101B4000B2EBC74261EB57310CFB0EF7B0EBC700AD
:101B500072EB57720CFB08F734BFA2EBC702B2EB73
:101B6000C70261EB577115EB4C254FEA816141EAE1
:101B700092114FEA82624FEAD13742EA901206FB95
:101B800007FC44F100044FEA80604FEA1C4C0CFB58
:101B90000BF7D21B03FB0CF761EB07010CFB0EF7F5
:101BA000B0EB074072EB17420CFB08F734BFA2EB17
:101BB0000742B2EB074261EB174115EB1C154FEAE8
:101BC000813141EA92414FEA823242EA90424FEA41
:101BD00080304FEA0C7644F1000448EA03434EEAB1
:101BE0000B484FF0000EB2EB080C71EB030724BF5B
:101BF000624639464EEB0E0E4FF0000B0018524174
:101C000049414BEB0B0BB2EB080C71EB03077BF17B
:101C1000000B24BF624639464EEB0E0E4FF0000B10
:101C20000018524149414BEB0B0BB2EB080C71EB26
:101C300003077BF1000B24BF624639464EEB0E0EC4
:101C400051EA020718BF46F0010616EB0E7655F171
:101C5000000254F1000103D5BDE88901BDE8008808
:101C6000BDE88901BDE80048B619524141EB0101C8
:101C7000A3F10103704780807F7E7D7C7B7A797839
:101C8000777676757473727171706F6E6E6D6C6C41
:101C90006B6A6A69686867666665646463636261E3
:101CA0006160605F5F5E5E5D5D5C5C5B5B5A5A5964
:101CB00059585857575656555555545453535252D0
:101CC0005251515050504F4F4F4E4E4D4D4D4C4C28
:101CD0004C4B4B4B4A4A4A49494948484847474771
:101CE00047464646454545444444444343434342AE
:101CF000424242414141002B9C4630D477002BD0D8
:101D00001CB54FEA370703B44FF010004FF0100135
:101D1000BAF1000F06D0BCF1000FDCBF40F00800A4
:101D200040F0080108F02CF90FBCBDE810400BF1A1
:101D3000010BBBF1010F08BF5FEA170722BF12F1C9
:101D4000010211F101014FF0004143F1000300F0E5
:101D5000004043EA00007047F9D35708D0E746EA4D
:101D6000064613F1400F4FEA16461FDD13F1200F10
:101D7000DFBF16430A46002120335B42BED0C3F1C9
:101D8000200746EA064602FA07F74FEA164646EAF1
:101D90000706C3F1200722FA03F201FA07F721FA36
:101DA00003F14FF0000342EA0702A7E746EA020602
:101DB00046EA06464FEA164646EA0106BCBF46EA30
:101DC0000646360C4FF000034FF000024FF00001C2
:101DD00094E72DE9804C9A46934670B491E8380018
:101DE00007C831EA400C48BF34EA430C03D5FFF77B
:101DF000E6FDFFF780FFF0BCBDE8008C2DE9804CCC
:101E00009A46934670B491E8380007C810F0804FA6
:101E100008BF13F0804F03D100F005F8FFF76BFF08
:101E2000F0BCBDE8008C20F07F4780EA030023F07F
:101E30007F4C07EB0C03A3F57C5300F00040A3F1AB
:101E4000FE0392F0000F00F0B38095F0000F00F059
:101E500077802DE901494FEA11404FEA144621EA03
:101E6000004800FB06FC24EA064708FB06F607FBD1
:101E700008F800FB07F718EB06484CEB164C4FEA46
:101E8000124B18EB07484FEA15464CEB174022EA75
:101E90000B4E0BFB06FC25EA06470EFB06F607FB7E
:101EA0000EFE0BFB07F71EEB064E4CEB164C4FF0ED
:101EB00000061EEB074E4CEB174B18EB0B0840F1DE
:101EC000000018EB0E0B58EB000840F100008F1AD1
:101ED0004FF000013CBFC943661B14BFB5EB040CB7
:101EE00000213CBFC943F61B4FEA17444EEA8E0E51
:101EF00027EA04454FEA1C4704FB07622CEA074C1B
:101F000005FB07F70CFB05F604FB0CFC16EB07467C
:101F100042EB174216EB0C4642EB1C421BEB06064B
:101F200058EB0202414146EA9E0601D5BDE801890F
:101F3000B619524141EB0101A3F10103BDE801894A
:101F40004FEA14454FEA114724EA054621EA074CB7
:101F500005FB07F406FB07F70CFB06F105FB0CFC81
:101F600011EB074144EB17444FEA124711EB0C41C8
:101F700044EB1C4422EA074C05FB07F206FB07F77B
:101F80000CFB06F605FB0CFC16EB074642EB174272
:101F900016EB0C4642EB1C456A1854F1000148BF91
:101FA0007047B619524141EB0101A3F1010370479B
:101FB00095F0000F37D04FEA11424FEA144721EA5B
:101FC000024624EA074C02FB07F106FB07F70CFB6D
:101FD00006F402FB0CFC14EB074441EB17414FEAFB
:101FE000154714EB0C4441EB1C4125EA074C02FB5E
:101FF00007F506FB07F70CFB06F602FB0CFC16EBDD
:10200000074645EB174516EB0C4645EB1C421219EB
:1020100051F1000148BF7047B619524141EB01012F
:10202000A3F1010370474FEA14454FEA114724EA30
:10203000054621EA074C05FB07F106FB07F70CFBF9
:1020400006F24FF0000605FB0CFC12EB074241EBD9
:10205000174112EB0C4251EB1C4148BF70479218DC
:1020600041EB0101A3F10103704700002D480088F6
:10207000632805D22B480088401C2A4908807047F5
:10208000002028490880284800882749C883002064
:1020900008800846408808840020488008468088D8
:1020A0004884002088800846C08888840020C88032
:1020B00008460089C88400200881084640890885B0
:1020C000002048810846808948850020888108468C
:1020D000C08988850020C8810846008AC8850020FC
:1020E00008820846408A0886002048820846C08A3E
:1020F00088860020C8820846808B48870020888315
:102100000846808A4886002088820846008BC88658
:10211000002008830846408B08870020488300BFC2
:10212000ADE7000014060020C406002010B54FF4EF
:10213000407003F0CBFB02F037FE02F0C5FE04F066
:1021400013FF03F03BF803F0DFF803F0BFF902F0F0
:1021500071FF03F09BFA02F04BFF03F059FB10BD37
:1021600000BFFEE700B585B002210B4800F092F9F0
:1021700001280FD10221084800F098F86A46002192
:10218000054800F0AAFA00BF00BF04480088401CC0
:102190000249088005B000BD00640040C40600206C
:1021A00010B50121044800F075F9012803D101217F
:1021B000014800F07BF810BD0064004000B585B018
:1021C0000221194800F066F9012801D005B000BDD0
:1021D0000221154800F06AF86A460021124800F012
:1021E0007CFA0098A0F2012010B1012814D109E076
:1021F00069460E4800F02EF80D48C088401C0C4976
:10220000C88009E069460B4800F024F80848808837
:10221000401C0749888000BF00BF05484088401C1B
:102220000349488000BFD1E700680040BE0000209D
:10223000C4060020B600002010B50121044800F0BB
:1022400029F9012803D10121014800F02FF810BD20
:10225000006800400A7BCB7A42EA032212B2028075
:102260008B7B4A7B43EA022212B242800B7CCA7B00
:1022700043EA022212B282804A7C52B282717047D3
:102280001CB50020009001900548B0F910300548B9
:10229000B0F910204FF40071034800F092FA1CBD11
:1022A000380500204C05002000680040B1F5007F93
:1022B0003AD00FDC202928D006DC01291CD00429C3
:1022C0001DD0082940D11DE0402921D0B1F5807FE3
:1022D0003AD126E0B1F5004F31D006DCB1F5806F80
:1022E00025D0B1F5006F2FD124E0B1F5803F12D099
:1022F000B1F5003F28D111E0154A826025E008229F
:10230000C26022E01022C2601FE0082202611CE0CD
:102310001022026119E00822426016E01022426099
:1023200013E00422426010E0042242600DE0042227
:1023300042600AE0002282610422426005E000223D
:1023400082610422426000E000BF00BF70470000CD
:102350000101010010B504460B48844209D1012156
:10236000480603F0DFFD00214FF0007003F0DAFDB6
:1023700008E00121880603F0D5FD00214FF08060C0
:1023800003F0D0FD10BD00000064004010B5002136
:10239000837A012202FA03F13D4A126842F00102F7
:1023A0003B4B1A603A4A1C3212688A43384B1C3342
:1023B0001A60027BCAB9364A0C3212688A43344B1F
:1023C0000C331A604288C38842EA0343304A4032E1
:1023D000847A42F834300288838842EA03432C4AE4
:1023E0004032847A02EBC4025360027B012A19D185
:1023F000274A0C3212680A43254B0C331A60428874
:10240000038842EA0343224A4032847A42F8343055
:10241000C288838842EA03431D4A4032847A02EB31
:10242000C4025360C27A3AB9194A121D12688A432B
:10243000174B1B1D1A6006E0154A121D12680A434D
:10244000134B1B1D1A60028932B9114A14321268EB
:102450008A430F4B14331A600289012A06D10C4AB1
:10246000143212680A430A4B14331A60427B012A61
:1024700006D1074A1C3212680A43054B1C331A6006
:10248000034A126822F00102014B1A6010BD0000DD
:102490000066004070B504460D460026606928407D
:1024A000002871D0B5F5807F5CD010DC082D35D0C8
:1024B00006DC012D20D0022D24D0042D72D127E07E
:1024C000102D31D0202D35D0402D6BD138E0B5F511
:1024D000004F60D009DCB5F5007F49D0B5F5806FBD
:1024E0004CD0B5F5006F5DD14FE0B5F5803F2DD0F4
:1024F000B5F5003F56D12FE0A0682D4901F054FBFF
:10250000064651E0E068032101F04EFB06464BE031
:10251000E068082101F048FB064645E0E06810212C
:1025200001F042FB06463FE02069032101F03CFB3D
:10253000064639E02069082101F036FB064633E003
:102540002069102101F030FB06462DE0606808216B
:1025500001F02AFB064627E06068102101F024FB09
:10256000064621E0A069012101F01EFB06461BE0A2
:10257000A069022101F018FB064615E0A0690421BC
:1025800001F012FB06460FE00FE0A069702101F098
:102590000BFB064608E06068042101F005FB0646D7
:1025A00002E0FFE7002600BF00E00026304670BDD5
:1025B000010101001AB143690B43436102E0436921
:1025C0008B434361704730B50246002000231468F6
:1025D00024F002041460146844F00104146000E064
:1025E0005B1C546804F001041CB94FF6FF74A3424D
:1025F000F6D1546804F001040CB900206CE08C7929
:10260000012C04D1146844F08004146003E01468C1
:1026100024F080041460CC79012C04D1146844F0B7
:102620004004146003E0146824F0400414600C7A41
:10263000012C04D1146844F02004146003E01468F1
:1026400024F0200414604C7A012C04D1146844F066
:102650001004146003E0146824F0100414608C7AF1
:10266000012C04D1146844F00804146003E01468D9
:1026700024F008041460CC7A012C04D1146844F0CE
:102680000404146003E0146824F0040414608C78DB
:10269000A407CD7844EA05640D7944EA05444D79F0
:1026A00044EA05540D886D1E2C43D461146824F04F
:1026B00001041460002300E05B1C546804F0010472
:1026C0001CB14FF6FF74A342F6D1546804F0010424
:1026D0000CB1002000E0012030BD10B500F5D8732A
:1026E00003EB01131B6803F004031372137A53B94D
:1026F00000F5D87303EB01131B6840F2FF7404EA82
:102700005353136009E000F5D87303EB01131B6802
:102710006FF0604404EAD303536000F5D87303EB11
:1027200001131B6803F00203537200F5D87303EB27
:1027300001135B6803F00F03937200F5D87303EB8A
:1027400001135B681B0AD37400F5D87303EB011304
:102750009B68D37200F5D87303EB01139B681C0AC6
:10276000147300F5D87303EB01139B681C0C5473AE
:1027700000F5D87303EB01139B681B0E937300F5F0
:10278000D87303EB0113DB68D37300F5D87303EB45
:102790000113DB681C0A147400F5D87303EB0113F2
:1027A000DB681C0C547400F5D87303EB0113DB6871
:1027B0001B0E937411B92023C36001E02023036131
:1027C00010BD2DE9F04385B081460E4614461D46E6
:1027D000DDE90C78009600208DF808008DF80900DE
:1027E00008208DF80A00200A8DF80B00E1B28DF860
:1027F0000C10290A8DF80D10E9B28DF80E10390A67
:102800008DF80F10F9B28DF810104FEA18218DF8DD
:10281000111008F0FF018DF812106946484600F0CB
:1028200013F805B0BDE8F08300218171C171017218
:1028300041728172C1728170C170032101710221E4
:10284000417101210180704710B502460020936854
:1028500003F08063B3F1806F00D110E0936803F060
:102860000063B3F1006F01D1012008E0936803F029
:102870008053B3F1805F01D1022000E004200428DE
:1028800074D002F5C07303EB00131B6803F001045E
:1028900002F5C07303EB00131C600B7A7BB94B7A13
:1028A0000C8843EA445302F5C07404EB0014246816
:1028B000234302F5C07404EB0014236010E00B7A8C
:1028C0004C6843EAC4034C7A234302F5C07404EB1A
:1028D00000142468234302F5C07404EB0014236041
:1028E0008B7A03F00F038B7202F5C07303EB0013B6
:1028F0005B6823F00F0402F5C07303EB00135C6008
:1029000002F5C07303EB00135B688C7A234302F576
:10291000C07404EB001463608B7B1C064B7B44EAA1
:1029200003440B7B44EA0323CC7A234302F5C074AF
:1029300004EB0014A3608B7C1C064B7C44EA03442C
:102940000B7C44EA0323CC7B234302F5C07404EBE5
:102950000014E36002F5C07303EB00131B6843F03F
:10296000010402F5C07303EB00131C6010BD0000EE
:1029700010B52DED088B674890ED150AD0ED160ABD
:1029800030EE600ADFED640A20EE200ADFED630A14
:1029900080EE201AB0EE418A90ED130AD0ED140AB1
:1029A00030EE600A5E48D0ED000A30EE200ADFED1E
:1029B0005A0A20EE200ADFED590A80EE201AF0EEC6
:1029C000418A544890ED120AD0ED160A30EE600AA2
:1029D000D0ED100A30EEC00ADFED4F0A20EE200ADB
:1029E000DFED4E0A80EE201AB0EE419A90ED0E0A0D
:1029F000D0ED140A30EE600A4948D0ED000A30EEFE
:102A0000200A4448D0ED0C0A30EEC00ADFED420A3D
:102A100020EE200ADFED410A80EE201AF0EE419A06
:102A200090ED110AD0ED160A30EE600AD0ED0F0AD3
:102A300030EEC00ADFED380A20EE200ADFED370A5B
:102A400080EE201AB0EE41AA90ED0D0AD0ED140AE6
:102A500030EE600A3248D0ED000A30EE200A2D48F0
:102A6000D0ED0B0A30EEC00ADFED2B0A20EE200A73
:102A7000DFED2A0A80EE201AF0EE41AA90ED090A55
:102A8000D0ED0A0A30EE600ADFED230A20EE200ABC
:102A9000DFED220A80EE201AB0EE41BA90ED080A6E
:102AA000DFED1D0A20EE200ADFED1C0A80EE201A61
:102AB000F0EE41BA90ED061AD0ED071A31EE611A28
:102AC000F0EE410A90ED041AD0ED051A31EE611ACC
:102AD000B0EE410AF0EE484AB0EE684AF0EE493AEC
:102AE000B0EE693AF0EE4A2AB0EE6A2AF0EE4B1ADE
:102AF000B0EE6B1A0B4801F023FDDFED0B0A9FEDE2
:102B00000A0A084801F0F0FC064801F0ABFCBDECF5
:102B1000088B10BD78090020DB0F494000003443CA
:102B20005400002060080020000000000FB49DED5C
:102B3000020A244880ED040A9DED030A80ED060A8E
:102B40009DED040A80ED080A9DED050A80ED090A55
:102B50009DF82000012819D19DED090A194880ED42
:102B60000B0A9DED0A0A80ED0F0A9DED0B0A80ED20
:102B70000C0A9DED0C0A80ED100A9DED0D0A80ED0A
:102B8000130A9DED0E0A80ED150A18E09FED0E0A5E
:102B90000C4880ED0B0A9FED0C0A80ED0F0A9FEDAB
:102BA0000A0A80ED0C0A9FED080A80ED100A9FEDDD
:102BB000060A80ED130A9FED040A80ED150A04B0A1
:102BC0007047000078090020000000000FB410B525
:102BD000DDED020A9FED181A60EE810AB0EE600A80
:102BE000164803F091FB154803F060FB134803F00F
:102BF0007BFBDFED130A20EE200A124880ED000A6D
:102C0000DDED030A9FED0C1A60EE810AB0EE600A5A
:102C10000D4803F079FB0C4803F048FB0A4803F029
:102C200063FBDFED070A20EE200A064880ED010A6B
:102C300010BC5DF814FB00006F12833AB80100204D
:102C400000007A4478090020D001002010B51D480A
:102C500090ED071AF0EE410A1B4890ED071AB0EE0E
:102C6000410A1A4801F081FC194890ED071AF0EE6C
:102C7000410A184890ED071AB0EE410A164801F0D3
:102C800074FC104890ED081AF0EE410A0E4890EDE1
:102C9000081AB0EE410A0D4801F074FC0C4890EDA2
:102CA000081AF0EE410A0B4890ED081AB0EE410AFE
:102CB000094801F067FC054801F06AFC064801F08C
:102CC00067FC10BD98040020E8040020B402002036
:102CD00010050020C00400202403002010B5044685
:102CE0001348007820701C221249201DFDF799FD21
:102CF00003F0CCF920620F48803890ED020AD0ED45
:102D0000030A30EE200AF0EE000A80EE201A84ED6D
:102D1000091A90ED070A84ED0A0A0748408CA0863C
:102D20000548808CE0860448808D208710BD000017
:102D300095040020F8090020C40600200FB400B557
:102D400099B060221EA96846FDF76BFD1AA80FC84E
:102D5000FFF73CFF60221EA96846FDF762FD1AA836
:102D60000FC8FFF7E3FEFFF703FE60221EA96846C7
:102D7000FDF757FD1AA80FC800F0C8F800F098F842
:102D800060221EA96846FDF74CFD1AA80FC801F085
:102D9000A1FA60221EA96846FDF743FD1AA80FC8D4
:102DA00001F0FEF819B05DF814FB000000B59BB00F
:102DB0003648D0ED1F0AB0EE600A354802F090FDAB
:102DC0003248D0ED140AB0EE600A314802F09EFF9E
:102DD0002E48D0ED160AB0EE600A2D4802F099FF99
:102DE00000202B496022CDE918102A496846FDF7DA
:102DF00018FD284810380FC802F010FF264890ED43
:102E0000091AF0EE410A254890ED091AB0EE410A80
:102E10001F4802F081FF1E4802F09AFD1B48D0EDCA
:102E20001F0AB0EE600A1E4802F05AFD1748D0EDA6
:102E3000140AB0EE600A1A4802F068FF1348D0ED99
:102E4000160AB0EE600A164802F063FF012014492A
:102E50006022CDE9181013496846FDF7E2FC1148DD
:102E600010380FC802F0DAFE0F4890ED091AF0EEA4
:102E7000410A0E4890ED091AB0EE410A084802F0E6
:102E80004BFF074802F064FD1BB000BD780900202D
:102E900094030020C402002098040020E8040020CD
:102EA000140400203403002010050020C00400207A
:102EB00010B5114890ED191AF0EE410A90ED171A6D
:102EC000B0EE410A00210D4803F04CFF0A4890ED96
:102ED0001A1AF0EE410A90ED181AB0EE410A0121DB
:102EE000074803F03FFF0749044803F055FE064931
:102EF000034803F051FE10BD780900203809002076
:102F000058090020B4020020240300200FB410B59B
:102F10002DED068B9DF85C00012815D19DED180A5A
:102F20004C4880ED170A9DED1A0A80ED190A9DEDB7
:102F3000190A80ED180A9DED1B0A80ED1A0ABDECF6
:102F4000068B10BC5DF814FBDDED0E8A9DED0F9A2B
:102F50009FED410A414802F0B7FF3E4890ED1D0A3F
:102F60003F48D0ED000A30EE600ADFED3E0A20EE69
:102F7000200ADFED3D0A80EE201AF0EE41AAB0EE05
:102F80006A0A364802F0A3FF344802F0CBFE334809
:102F900002F072FFB0EE408A2E48D0ED000A9FED9D
:102FA000331A60EE810AB0EE600A314802F08CFFFD
:102FB0002848D0ED020A9FED2D1A60EE810AB0EE8E
:102FC000600A2B4802F083FF294802F0ABFE284834
:102FD00002F052FFF0EE409A1E48D0ED010A9FED3C
:102FE000231A60EE810AB0EE600A224802F06CFFFC
:102FF0001848D0ED030A9FED1D1A60EE810AB0EE6D
:10300000600A1C4802F063FF1A4802F08BFE194860
:1030100002F032FFB0EE40AA39EE880A30EE280AFC
:103020000C4880ED170A0221134801F04DFA0948B7
:1030300080ED190A3AEE480A30EE090A80ED180AC6
:1030400003210D4801F040FA024880ED1A0A00BF42
:1030500075E70000780900200000000070020020E1
:1030600058000020DB0F4940000034436F12833AC0
:10307000E80100202C0200206008002010B500F0BC
:10308000B5FB00F0FBFC00F003FD10BD00B599B0EE
:10309000602205496846FDF7C4FB034810380FC895
:1030A000FFF74CFE19B000BD2807002000B5A7B0FF
:1030B00002F0ECFF3C49D1F89010401A3B490988D6
:1030C000884248D23A4890ED001ADFED3A0A3A4871
:1030D00090ED000A394802F0FDFE354890ED001AE7
:1030E000DFED340A344890ED000A354802F0F2FE74
:1030F000344890ED000A344803F009F9314890ED66
:10310000000A324803F003F900F0B8FC304890EDB3
:10311000000A80ED000A90ED010A80ED010A9FEDA2
:10312000250A80ED020A9FED230A80ED030A9FED38
:10313000210A80ED040A9FED1F0A80ED050A25484B
:1031400090ED000A224880ED060A224890ED000A20
:103150001F4880ED070A9822134910316846FDF791
:1031600060FB11480FC800F039F81B490870084689
:10317000007820B916490C4800F08AF807E0164894
:103180000078012803D11249074800F097F860221F
:103190000F4910316846FDF744FB0D480FC8FFF793
:1031A000CDFD27B000BD000078090020640000209C
:1031B0003C0000200000000038000020E801002052
:1031C0002C02002028000020B8010020D00100209F
:1031D000180700205C0000200C0600200FB410B57A
:1031E0002DED028B9DED0B0AB0EE408A9DED0E0A8F
:1031F000F0EE408A224890ED000AB4EEC08AF1EE6B
:1032000010FA07DB00201F490860BDEC028B10BCE0
:103210005DF814FBB0EE680A01F048FD1A48D0EDE5
:10322000000AB4EEE00AF1EE10FA01DB0120ECE74F
:1032300000F040FF30B900F049FF18B900201149F3
:103240000860E2E70F48006820B902F01FFF0D494F
:10325000086012E002F01AFF0A490968401A00EEFD
:10326000100AB8EE400A0948D0ED000AB4EEE00AB0
:10327000F1EE10FA01DD0120C7E70020C5E70000EC
:1032800094000020100600209C00002098000020E0
:1032900070B505460C4603F0F3FE85F89D00284600
:1032A00003F01AFF84ED030A284604F03FF884ED8A
:1032B000050A2146284603F0F1FE70BD70B52DEDDC
:1032C000028B05460C46244890ED050A84ED020A5F
:1032D0009FED220A84ED030A94ED050AB0EE408AC0
:1032E0009FED1E0AF0EE408A00F0E4FE78B11C4823
:1032F000D0ED050AB0EE600A1A4890ED001A1A489F
:10330000D0ED000A02F05EFFF0EE408A1FE000F010
:10331000DDFE88B11248D0ED050AB0EE600A114812
:1033200090ED001A1048D0ED000AF1EE600A02F0AC
:1033300049FFF0EE408A0AE00C4890ED001ADFEDFC
:10334000070AB0EE480A02F03DFFF0EE408AC4EDF5
:10335000058ABDEC028B70BD7809002000000000DA
:1033600018070020A4000020A0000020A8000020D2
:1033700010B500F03BFA00F081FB00F089FB00F093
:1033800051FE0149087010BDB5000020704710B50E
:1033900000F02CFA00F072FB00F07AFB10BD000088
:1033A00000B52DED048B99B002F070FE3F49D1F8C5
:1033B0009410401A3E490988884221D23D4890ED38
:1033C000001ADFED3D0A3D4890ED000A3C4802F04E
:1033D00081FD384890ED001ADFED370A374890ED4F
:1033E000000A384802F076FD374890ED000A374869
:1033F00002F08DFF344890ED000A354802F087FF57
:1034000000F03CFB334890ED058AD0ED068A90ED44
:10341000079A314890ED000A2E4880ED000A2E48A8
:1034200090ED000A2B4880ED010A9FED230A80ED04
:10343000020A9FED210A80ED030A9FED1F0A80ED2D
:10344000040A264890ED001ADFED1B0AB0EE480A88
:1034500002F0B8FE1F4880ED050A214890ED001AE1
:103460002048D0ED000AB0EE680A02F0ABFE194821
:1034700080ED060A1A4890ED001A1A48D0ED000AAD
:10348000B0EE490A02F09EFE124880ED070A602263
:1034900000F110016846FDF7C4F90E480FC8FFF7A8
:1034A0004DFC19B0BDEC048B00BD00007809002074
:1034B000640000203C0000200000000038000020D4
:1034C000E80100202C0200202C000020B801002080
:1034D000D00100201807002040000020AC00002090
:1034E000B00000206000002000B599B002F0CEFDD1
:1034F0003249D1F88C10401A31490988884229D2C2
:10350000304890ED001ADFED300A304890ED000AA7
:103510002F4802F0DFFC2B4890ED001ADFED2A0A5D
:103520002A4890ED000A2B4802F0D4FC2A4890ED7E
:10353000000A2A4802F0EBFE274890ED000A2848CE
:1035400002F0E5FE00F052F900F098FA00F0A0FA5F
:1035500019B000BD234890ED000A234880ED000A11
:10356000204890ED000A204880ED010A9FED160AE0
:1035700080ED020A9FED140A80ED030A9FED120A06
:1035800080ED040A9FED100A80ED050A174890EDC2
:10359000000A154880ED060A144890ED000A12480A
:1035A00080ED070A602200F110016846FDF739F945
:1035B0000D480FC8FFF7C2FB00BFC9E7780900201C
:1035C00064000020340000200000000030000020D3
:1035D000E80100202C02002024000020B801002077
:1035E000D00100204C000020180700205C000020C3
:1035F00000B59BB000F008F9FFF728FBFFF7D6FBFA
:103600000F4800780F4908700CA8FFF767FB2C22C1
:1036100010A96846FDF705F90CA80FC800F016F8C8
:10362000074908700748027808460178064800F004
:1036300092F80348007800F06AF81BB000BD000063
:103640009404002095040020780900200FB410B5E0
:103650008CB0012403F0BEFF08B1002452E02C22FC
:1036600012A96846FDF7DDF80EA80FC803F038FF71
:1036700008B1012446E02C2212A96846FDF7D1F8D2
:103680000EA80FC803F0B8FF08B102243AE02C22BC
:1036900012A96846FDF7C5F80EA80FC804F026F871
:1036A00008B103242EE02C2212A96846FDF7B9F8D0
:1036B0000EA80FC803F060FF08B1042422E02C22FA
:1036C00012A96846FDF7ADF80EA80FC803F0E6FF93
:1036D00008B1052416E02C2212A96846FDF7A1F8CE
:1036E0000EA80FC803F040FF08B106240AE02C2200
:1036F00012A96846FDF795F80EA80FC803F07AFFE7
:1037000000B1072420460CB010BC5DF814FB10B5C6
:103710000446082C1DD2DFE804F004070A0D10133C
:103720001619FFF725FE14E0FFF7A8FC11E0FFF7DC
:103730002EFE0EE0FFF7D8FE0BE0FFF7B7FC08E027
:10374000FFF72EFE05E0FFF7A1FC02E0FFF71EFEEB
:1037500000BF00BF10BD70B504460D461646B54209
:1037600000D170BD072D28D2DFE805F004090E1343
:103770001D18220002F08AFCC4F880001DE002F04F
:1037800085FC8421085118E002F080FC8821085152
:1037900013E002F07BFC8C2108510EE002F076FC75
:1037A0009421085109E002F071FC9021085104E0D5
:1037B00002F06CFC9821085100BF00BF00BFD0E7A9
:1037C0000DE0FFF715FF0648C08A401C0449C88277
:1037D00000BF04480168044805F042FE00BFF0E75E
:1037E000C4060020D8A000080806002010B500F08C
:1037F000C1FB00F02DFD03F003FE03F0D5FD03F047
:10380000F5FB03F0E9FB10BD10B52DED068B824BE7
:10381000824A8349002004F041F8824B824A83495E
:10382000012004F03BF8824890ED110A814880EDB8
:10383000070A7F4890ED100A7E4880ED080A7C4810
:1038400090ED0F0A7B4880ED090A794890ED0B0A4C
:10385000794880ED070A764890ED0A0A764880EDAF
:10386000080A734890ED090A734880ED090A704808
:1038700090ED140A714880ED070A6D4890ED130A27
:103880006E4880ED080A6A4890ED120A6B4880ED98
:10389000090A674890ED0E0A694880ED070A6448F6
:1038A00090ED0D0A664880ED080A614890ED0C0A1B
:1038B000634880ED090A5E48D0ED060AB0EE600A62
:1038C000604803F059FF604880ED0A0A584890EDBF
:1038D000030A5D4880ED140A5548D0ED040AB0EEA5
:1038E000600A5A4803F048FF574880ED160A5048CE
:1038F00090ED070A544880ED1D0A4D4890ED050AE9
:10390000B1EE400A504880ED1E0A494890ED080A81
:103910004D4880ED1F0A4E4801F04CF84A4880EDB2
:10392000020A4C4801F046F8474880ED030A00219E
:10393000474801F043F8444880ED0D0A012145480D
:1039400001F03CF8404880ED0E0A0021404801F0AB
:103950008FF8B0EE408A01213E4801F089F8F0EE80
:10396000408A3D48B0EE480A03F006FF364880ED35
:10397000110A3A48B0EE680A03F0FEFE324880EDC4
:10398000120A0021324801F013F9B0EE409A0121E9
:10399000304801F00DF9F0EE409A3148B0EE490A96
:1039A00003F0EAFE284880ED1B0A2E48B0EE690AB3
:1039B00003F0E2FE244880ED1C0A03F0F1FE2248E9
:1039C00080ED070A90ED050AD0ED070A264890ED34
:1039D000001A00EE810A1C4880ED050A234802F017
:1039E000A5F8B0EE40AA224802F0A0F8F0EE40AAF6
:1039F0002048B0EE4A0A03F0BFFE134880ED280AC3
:103A00001D48B0EE6A0A03F0B7FE0F4880ED290AA0
:103A1000BDEC068B10BD0000C8000020B6000020E1
:103A200038050020DC000020BE0000204C050020EE
:103A30008807002098040020C0040020E80400202B
:103A40001005002068010020780900207C0100207A
:103A5000B402002024030020180100202C010020C3
:103A6000F000002004010020DCA0000894030020E6
:103A70001404002090010020A40100209FED020A00
:103A8000024880ED050A7047000000007809002018
:103A900000B500F003F800F02FF800BD134890EDDA
:103AA000020A134880ED000A104890ED030A1048FE
:103AB00080ED010A0D4890ED050A0D4880ED020ADF
:103AC0009FED0C0A80ED030A9FED0A0A80ED040ABF
:103AD0009FED080A80ED050A9FED060A80ED060AB3
:103AE0009FED040A80ED070A704700007809002066
:103AF00018070020000000000020284981F820005D
:103B0000274890ED0D0A084680ED090A9FED250A29
:103B100080ED0A0A224890ED0E0A084680ED0B0A55
:103B20009FED200A80ED0C0A1D4890ED140A08460E
:103B300080ED0D0A9FED1B0A80ED0E0A002180F832
:103B40003C109FED180A80ED100A9FED160A80EDDB
:103B5000120A9FED140A80ED110A9FED120A80ED02
:103B6000130A80F850109FED0F0A80ED150A9FEDA3
:103B70000D0A80ED160A80F85C109FED0A0A80EDB0
:103B8000180A9FED080A80ED190A9FED060A80EDDC
:103B90001A0A9FED040A80ED1B0A704718070020DF
:103BA00078090020000000000246002002EA01031C
:103BB0000BB1012000E00020704700000246094BD5
:103BC0009A4201D2084801E00648103801F000533B
:103BD0001BB1064B0B40C36002E0044B0B408360FB
:103BE0007047000010640240006002407D0F7D0FAE
:103BF00021B1026842F00102026003E0026822F093
:103C00000102026070470000016821F001010160BB
:103C10000021016041608160C16001612121416139
:103C20004A49884204D13D21484A103A91608CE0CB
:103C300046491831884205D14FF47461434A103A1D
:103C4000916082E041493031884205D14FF47411CE
:103C50003E4A103A916078E03C494831884205D1AB
:103C60004FF07461394A103A91606EE03749603123
:103C7000884204D13649354A103AD16065E033496B
:103C80007831884204D13349304A103AD1605CE03F
:103C90002E499031884204D12F492C4A103AD160E4
:103CA00053E02A49A831884205D14FF03D51274AB7
:103CB000103AD16049E02949884204D13D21274A80
:103CC000083A116041E025491831884205D14FF486
:103CD0007461224A083A116037E020493031884245
:103CE00005D14FF474111D4A083A11602DE01B49AB
:103CF0004831884205D14FF07461184A083A116082
:103D000023E016496031884204D11149134A121F39
:103D100011601AE011497831884204D10D490F4AE7
:103D2000121F116011E00D499031884204D10A49F7
:103D30000A4A121F116008E00849A831884204D1DC
:103D40004FF03D51054A121F11607047106002404C
:103D50003D000020400F002000003D201064024084
:103D6000014600200A6802F001020AB1012000E0C9
:103D7000002070470146486880B2704710B50022A5
:103D80000268134B1A40CC680B6823434C692343E9
:103D90008C692343CC6923430C6A23434C6A234335
:103DA0008C6A23434C6B23438C6B23431A4302607E
:103DB000426922F00702D1E90B3423431A434261DE
:103DC0000B6943604B6883608B68C36010BD000063
:103DD0003F801CF0416070470021016041608160BC
:103DE000C160016141618161C161016241628162C1
:103DF000C1620163416381637047704723E01248E9
:103E0000006804F039FE114908601148006804F0A8
:103E100033FE104908601048006804F02DFE0F4979
:103E200008600F48006804F027FE0E49086002F0A1
:103E3000A7FFFEF71BF90C48808B401C0A498883BA
:103E40000A2004F06FFFDAE7180600201C060020A5
:103E50002006002024060020280600202C06002032
:103E60003006002034060020C406002010B50021D2
:103E700000BF07E04AF2104200BF131EA2F1010288
:103E8000FBD1491C8142F5D310BDF0B50A46002193
:103E90000023002400BF3DE0012505FA01F3156869
:103EA00005EA03049C4234D105684F000326BE4056
:103EB000B543056015794E00B54006683543056089
:103EC0001579012D02D01579022D16D185684F0084
:103ED0000326BE40B543856055794E00B5408668DF
:103EE00035438560456801268E40B5434560456889
:103EF00096798E40B6B235434560C5684F000326BB
:103F0000BE40B543C560D5794E00B540C66835435F
:103F1000C560491C1029BFD3F0BDF0B500230024B3
:103F20004D07ED0E02FA05F3CE1000F1200555F80D
:103F300026504E07F70E0F26BE40B543CF1000F1B6
:103F4000200646F82750CE1000F1200555F82650DF
:103F500045EA0304CE1000F1200545F82640F0BDE7
:103F60004FF6FF7101600021017141718171C171D2
:103F7000704700009FED070A074880ED030A9FED98
:103F8000050A064880ED030A002003490882034918
:103F90000882704700000000380500204C05002012
:103FA0000FB410B59DF8580001280AD19DED170AED
:103FB000184880ED030A9DED180A174880ED030AA2
:103FC00011E00021154800F07FFAB1EE400A1148D7
:103FD00080ED030A0121114800F076FAB1EE400AA3
:103FE0000D4880ED030A0B48D0ED030AB0EE600ADD
:103FF00003F02AFC074908820748D0ED030AB0EE17
:10400000600A03F021FC404200B20349088210BC60
:104010005DF814FB380500204C05002060080020E6
:1040200000BFFEE710B50648007808B1002010BDBB
:1040300000F008F808B10120F9E70020F7E70000D8
:104040009404002000B500F041F810B100F026F80B
:1040500008B9002000BD00F0D9F810B100F0CAF88E
:1040600008B90020F6E70120F4E700000448C08802
:10407000B0F52B7F01DC012070470020FCE7000039
:10408000000700200448C08840F25451884201DBF8
:10409000012070470020FCE7000700200448C0888A
:1040A000B0F5E87F01DC012070470020FCE700004C
:1040B0000007002004488088B0F5E87F01DC01207B
:1040C00070470020FCE700000007002004488088BB
:1040D000B0F5C66F01DB012070470020FCE700004F
:1040E000000700200348807A022801D10120704790
:1040F0000020FCE7000700200348807A032801D154
:10410000012070470020FCE7000700200348807A68
:10411000012800D170470020FCE7000000070020C4
:104120003248C08C322801DA00207047304880883D
:10413000B0F5B67F05DB2E48808840F29461884256
:1041400001DD0020F1E72A48C088B0F5B67F05DB25
:104150002748C08840F29461884201DD0020E4E7EE
:1041600023480088B0F5B67F05DB2148008840F27F
:104170009461884201DD0020D7E71D484088B0F5F2
:10418000B67F05DB1A48408840F29461884201DD21
:104190000020CAE716480089B0F5B67F05DB144851
:1041A000008940F29461884201DD0020BDE710489B
:1041B000807A012807D00E48807A032803D00C4863
:1041C000807A022801D10120AFE70948C07A01288E
:1041D00007D00748C07A032803D00548C07A0228D0
:1041E00001D10120A1E700209FE70000C4060020C4
:1041F0000007002004484088B0F5E87F01DC01207A
:1042000070470020FCE700000007002004480088F9
:10421000B0F5E87F01DC012070470020FCE70000DA
:10422000000700200348C07A012800D17047002011
:10423000FCE700000007002004480089B0F5E87F93
:1042400001DC012070470020FCE70000000700208F
:104250001B4890ED070A80ED040A9FED1A0A80EDD5
:10426000050A9FED180A80ED060A90ED070A164828
:1042700080ED040A9FED130A80ED050A9FED110AF7
:1042800080ED060A0E4890ED070A104880ED040AFA
:104290009FED0C0A80ED050A9FED0A0A80ED060AE3
:1042A000074890ED070A0A4880ED040A9FED050AC9
:1042B00080ED050A9FED030A80ED060A70470000B5
:1042C0009804002000000000C0040020E804002042
:1042D000100500200FB410B59DF86400012816D118
:1042E0009DED1A0A2D4880ED060A9DED1B0A2C480B
:1042F00080ED060A9DED1C0A2A4880ED060A9DED18
:104300001D0A294880ED060A10BC5DF814FB2748F9
:10431000D0ED070AB0EE600A254890ED001AD0ED06
:10432000000AF1EE600A00F063FC1C4880ED060A0A
:104330001E48D0ED060AB0EE600A1D4890ED001A46
:10434000D0ED000AF1EE600A00F052FC154880ED55
:10435000060A1848D0ED060AB0EE600A144890ED3F
:10436000001AD0ED000AF1EE600A00F041FC0C48A2
:1043700080ED060A0F48D0ED070AB0EE600A0C483F
:1043800090ED001AD0ED000AF1EE600A00F030FC6A
:10439000054880ED060A00BFB6E70000980400203B
:1043A000C0040020E8040020100500203809002087
:1043B000E0A000085809002090ED001AB5EEC01AE0
:1043C000F1EE10FA12DD90ED001AF7EE001A31EE60
:1043D000C11AD0ED041A21EE211AD0ED001A90ED89
:1043E000032A01EE821A80ED041A704790ED011A3B
:1043F000DFED0F1A21EE211AF7EE001AC1EE810A45
:1044000090ED021AD0ED021A71EEA01A81EE210A87
:10441000B7EE001A31EE401AD0ED041A21EE211A3F
:10442000D0ED031A00EE211A80ED041A00BFDCE77C
:10443000DB0FC94010B5044694ED040A10EE101AC3
:10444000084603F025FB012803D19FED030A84ED04
:10445000040A94ED040A10BD0000000080ED030A78
:1044600070470000002129E09FED160A00F1C80204
:1044700002EB810282ED000A00221CE001EB8103C5
:1044800000EBC30303EB8203D3ED000A00F1A003AA
:1044900003EB820393ED001A00F1C80303EB8103E1
:1044A00093ED000A00EE810A00F1C80303EB8103DB
:1044B00083ED000A521C0A2AE0DB491C0429D3DBE5
:1044C0007047000000000000002901DB032902DD25
:1044D0009FED040A704700F1C80202EB810292EDE1
:1044E000000AF7E70000000010B50246B5EEC00A6A
:1044F000F1EE10FA04D0F5EEC00AF1EE10FA1BD17D
:10450000002016E0002111E000EB80030B4C04EBCF
:10451000C30303EB810393ED001A00EB800302EB6E
:10452000C30303EB810383ED001A491C0A29EBDB6B
:10453000401C0428E6DB10BD00BFFCE76805002036
:1045400080ED280AC0ED290A80ED2A1AC0ED2B1A49
:1045500080ED2C2AC0ED2D2A80ED2E3AC0ED2F3AA9
:1045600080ED304AC0ED314A704790ED051A31EECA
:10457000001A80ED121A90ED061A31EE201A80ED25
:10458000131A704780ED180AC0ED190A7047000031
:1045900010B52DED0C8B04469FEDBB0A84ED080A87
:1045A0009FEDB90A84ED0D0A94ED040A84ED0C0A1E
:1045B0009FEDB50A84ED110AD4ED120AB0EE600A3F
:1045C00000F086FBD4ED080A94ED001A41EE000AD3
:1045D000C4ED090AD4ED120AB0EE600A00F0AAFB9D
:1045E000D4ED0D0A94ED001A41EE000AC4ED0E0A56
:1045F000D4ED130AB0EE600A00F06AFBD4ED0C0AA9
:1046000094ED031A41EE000AC4ED0B0AD4ED130A2F
:10461000B0EE600A00F08EFBD4ED110A94ED031A9F
:1046200041EE000AC4ED100AD4ED090A94ED0B1A0C
:1046300070EEC10AB0EE600A00F096FBF0EE40DAD0
:10464000D4ED0E0A94ED101A70EEC10AB0EE600AB5
:1046500000F08AFB3DEE800AB0EE40DA00F08AFB03
:10466000F0EE40BA94ED0B0AD4ED090A30EE600A80
:10467000D4ED010AB0EE001A60EE810A20EE200AA5
:10468000B0EE408A94ED100AD4ED0E0A30EE600AC6
:10469000D4ED010AB0EE001A60EE810A20EE200A85
:1046A000F0EE408AB0EE6B0A00F05EFBB0EE409A8E
:1046B000B0EE480A00F058FBF0EE40DAB0EE680ABF
:1046C00000F052FB7DEE80DAB0EE490A00F04CFBC0
:1046D0003DEEC00AB0EE40DA00F04CFBB0EE40CA4E
:1046E00038EE8C0A78EE090A80EE201AB0EE41DA34
:1046F000B0EE4D0A00F0DFFADFED640A20EE200A8A
:1047000084ED140A94ED090AD4ED0B0A30EE600A28
:10471000D4ED020AB0EE001A60EE810A20EE200A03
:10472000F0EE409A94ED0E0AD4ED100A30EE600AD5
:10473000D4ED020AB0EE001A60EE810A20EE200AE3
:10474000B0EE40AAB0EE6B0A00F00EFBF0EE40AA0D
:10475000B0EE690A00F008FBF0EE40DAB0EE4A0A6B
:1047600000F002FB7DEE80DAB0EE6A0A00F0FCFA9F
:104770003DEEC00AB0EE40DA00F0FCFAF0EE40CABE
:104780003AEE6C0A79EEAA0A80EE201AB0EE41DA0F
:10479000B0EE4D0A00F08FFADFED3C0A20EE200A61
:1047A00084ED150AD4ED140AB0EE600A00F090FA18
:1047B000D4ED090A94ED011A41EE000AC4ED0A0A8B
:1047C000D4ED140AB0EE600A00F0B4FAD4ED0E0A8B
:1047D00094ED011A41EE000AC4ED0F0A94ED040AAB
:1047E000F0EE000A80EE201AB0EE41BAD4ED0A0ACB
:1047F00070EECB0AB0EE600A00F0B6FAF0EE40DAE6
:10480000D4ED0F0AB0EE600A00F0AEFA3DEE800A79
:10481000B0EE40DA00F0AEFA84ED160A94ED0F0A1D
:10482000D4ED0A0A70EECB0A80EE201AB0EE41DA1F
:10483000B0EE4D0A00F03FFADFED150A20EE200A37
:1048400084ED170A94ED170AB5EEC00AF1EE10FADE
:1048500007D294ED170ADFED0F0A30EE200A84ED3F
:10486000170A94ED0A0AD4ED1A0A30EE600AD4ED64
:10487000070A80EE201A84ED1B1A94ED0A0A84EDD3
:104880001A0ABDEC0C8B10BD00000000E02EE542C2
:10489000E02E65420000344390ED160A7047000098
:1048A00010B52DED048B04469FED400AB0EE409A02
:1048B000D4ED170A94ED151A70EEC10AB0EE600A35
:1048C00000F038FAD4ED000A9FED391A60EE810A43
:1048D00060EE209AD4ED120A94ED141A70EEC10A1B
:1048E000B0EE600A00F026FA69EE809AD4ED150A5F
:1048F00094ED141A70EEC10AB0EE600A00F01AFAD4
:10490000C9EE800AB0EE608AD4ED170A94ED141A4D
:1049100070EEC10AB0EE600A00F00CFAD4ED030AA2
:104920009FED231A60EE810A60EE209AD4ED150AFD
:1049300094ED131A70EEC10AB0EE600A00F0FAF9B5
:1049400069EE809AD4ED150A94ED141A70EEC10A3E
:10495000B0EE600A00F0EEF9C9EE800AF0EE608A6F
:1049600018EE100A03F094F8012803D19FED0F0A06
:10497000B0EE408A18EE900A03F08AF8012803D1BD
:104980009FED0A0AF0EE408A94ED180A20EE080A1C
:10499000D4ED190A08EEA00AB0EE409A9FED040A81
:1049A00029EE000ABDEC048B10BD000000000000E1
:1049B0006F12833A90ED0F0A7047000070B52DED2D
:1049C000028B04460D469FED270AB0EE408A15B1D2
:1049D000012D40D120E094ED040AF0EE000A80EEB3
:1049E000201A94ED0A0A30EE410AD4ED0F0A80EE47
:1049F000201AF0EE418AB0EE680A00F05CF9B1EEE0
:104A0000400ADFED190A20EE200ADFED180A80EED9
:104A1000201AB0EE418A1EE094ED040AB0EE001AAE
:104A2000C0EE010A94ED0A0A30EE600AD4ED0F0AD6
:104A300080EE201AF0EE418AB0EE680A00F03BF9F1
:104A4000DFED090A20EE200ADFED080A80EE201AC9
:104A5000B0EE418A00BF00BFB0EE480ABDEC028B49
:104A600070BD00000000000000003443DB0F49402F
:104A700070B52DED048B04460D469FED4B0AB0EE4C
:104A8000408AD4ED170A94ED151A70EEC10AB0EE03
:104A9000600A00F01DF9D4ED000A9FED441A60EEA3
:104AA000810A60EE209AD4ED120A94ED141A70EE89
:104AB000C10AB0EE600A00F03DF969EE809AD4EDCB
:104AC000150A94ED141A70EEC10AB0EE600A00F0F7
:104AD00031F9D4ED160A9FED351A60EE810A20EE09
:104AE000200AC9EE800AF0EE608AD4ED170A94ED30
:104AF000141A70EEC10AB0EE600A00F0E9F8D4EDC5
:104B0000030A9FED2A1A60EE810A60EE209AD4ED26
:104B1000150A94ED131A70EEC10AB0EE600A00F0A7
:104B200009F969EE809AD4ED150A94ED141A70EE25
:104B3000C10AB0EE600A00F0FDF8D4ED160A9FED50
:104B40001B1A60EE810A20EE200AC9EE800AB0EE40
:104B5000609A18EE900A02F09BFF012803D19FEDA6
:104B6000120AF0EE408A19EE100A02F091FF0128B5
:104B700003D19FED0D0AB0EE409A94ED180A20EE95
:104B8000280AD4ED190A09EE200AB0EE408A05B9C8
:104B900005E0012D03D1B1EE480AB0EE408AB0EE37
:104BA000480ABDEC048B70BD000000006F12833A10
:104BB000DFED0D0AB0EE600A41B9D0ED1B0A9FEDA2
:104BC0000B1A60EE810AB0EE600A0BE0012909D1F0
:104BD000D0ED1B0AF1EE600A9FED041A60EE810A27
:104BE000B0EE600A70470000000000006F12833AC8
:104BF000F0EE401AF4EEE01AF1EE10FA02D2B0EE46
:104C0000600A7047F4EEC11AF1EE10FA02DDB0EE60
:104C1000410AF6E7B0EE610AF3E7000090ED021AF0
:104C2000D0ED031A1D4991ED002A02EE211A80ED04
:104C3000041A90ED031A80ED051A9FED191AB0EED3
:104C4000410A9FED181AF0EE410A80ED060AC0ED08
:104C5000090A90ED061AF7EE001A31EEC11AD0EDEE
:104C6000041A21EE211AD0ED061A90ED002A01EE69
:104C7000821A80ED021A90ED091AF7EE001A31EE51
:104C8000C11AD0ED051A21EE211AD0ED091A90EDC6
:104C9000012A01EE821A80ED031A7047DCA0000899
:104CA0006F12833B0AD7233C00BFFEE7F0EE400AB9
:104CB000B0EEE00A704710B52DED028BB0EE408AE1
:104CC000B0EE480A02F046FFBDEC028B10BD0000BA
:104CD00010B52DED028BB0EE408A9FED080A28EE4C
:104CE000000ADFED070A80EE201AF0EE418AB0EEEE
:104CF000680AFBF78FFBBDEC028B10BDDB0F494050
:104D000000003443F0EE400AF5EEC00AF1EE10FA6E
:104D100002DDB7EE000A7047F5EEC00AF1EE10FAB8
:104D200002D2BFEE000AF6E79FED010AF3E70000AA
:104D30000000000010B52DED028BB0EE408A9FED13
:104D4000080A28EE000ADFED070A80EE201AF0EECE
:104D5000418AB0EE680AFBF799FBBDEC028B10BDEF
:104D6000DB0F494000003443F0EE400A20EEA00A79
:104D70007047000008B5F0EE400AB0EE600AB5EEEC
:104D8000C00AF1EE10FA04DBB1EEC01A8DED001A84
:104D900004E09FED041A8DED001A00BF9DED000A9E
:104DA00008BD00000000000000B58BB0012102200A
:104DB00001F098F80121480601F0A4F809A8FFF7CE
:104DC000CFF84FF44070099002208DF8280009A90F
:104DD0003B48FFF75AF8092208213948FFF79DF8A8
:104DE000092211463648FFF798F83648FDF7B2FA1F
:104DF00005A8FDF719FD00208DF81D0001208DF894
:104E00001F0000208DF81E0001208DF81B000020DF
:104E10008DF81A008DF81C008DF816000320ADF8EF
:104E2000140001208DF8170008208DF818000320C9
:104E30008DF8190005A92348FDF7C5FB00208DF862
:104E40000E008DF80F0001208DF810000020ADF845
:104E50000400ADF80600ADF80800ADF80A00ADF8A2
:104E60000C0001208DF8110001A8FDF78FFA142025
:104E70008DF8200000208DF821008DF822000120FF
:104E80008DF8230008A800F0E5FC13208DF8200021
:104E900001208DF8210000208DF8220001208DF8DE
:104EA000230008A800F0D6FC012202210548FDF7E6
:104EB00081FB012211460348FDF77CFB0BB000BDCE
:104EC000000402400064004000B58BB001210220C4
:104ED00001F008F80121480601F014F801218806C4
:104EE00001F010F809A8FFF73BF8602009900220B4
:104EF0008DF8280009A93C48FEF7C7FF09220521C3
:104F00003948FFF70AF8092206213748FFF705F864
:104F10003648FDF71FFA05A8FDF786FC00208DF83E
:104F20001D0001208DF81F0000208DF81E000120BB
:104F30008DF81B0000208DF81A008DF81C008DF8EC
:104F400016000320ADF8140001208DF8170008208A
:104F50008DF8180003208DF8190005A92348FDF7E6
:104F600032FB0E208DF80E0000208DF80F0001207E
:104F70008DF810000020ADF80400ADF80600ADF883
:104F80000800ADF80A00ADF80C0001208DF8110002
:104F900001A8FDF7FBF940208DF8200000208DF8D6
:104FA00021008DF8220001208DF8230008A800F0D0
:104FB00051FC3F208DF8200001208DF821000020B9
:104FC0008DF8220001208DF8230008A800F042FC93
:104FD000012202210548FDF7EDFA0122114603489E
:104FE000FDF7E8FA0BB000BD000402400068004085
:104FF0000EB50121082000F085FF684601F0DEF9BA
:1050000042F2CF00ADF800004FF0FF3001900020D9
:10501000ADF80200ADF808008DF80A0069460448B2
:1050200001F08AF90121024801F074F90EBD000077
:10503000000C004000B597B00121584800F052FF25
:105040000121C80400F05EFF08220A215448FEF73F
:1050500064FF08220B215248FEF75FFF00208DF805
:105060005A0001208DF85B0002208DF858008DF861
:1050700059004FF44060159015A94948FEF705FF07
:1050800034208DF8400000208DF8410006208DF876
:10509000420001208DF8430010A800F0DBFB4148DE
:1050A00011900020ADF84800ADF84A00ADF84C0072
:1050B000ADF850000C20ADF84E0011A93A4801F0AF
:1050C000F3FC012240F22441374801F0C7FC0121E2
:1050D000354801F00CFC01228021334801F013FC1B
:1050E0003248FEF791FD00BF3048FEF739FE012837
:1050F000FAD04FF0006001902B48001D0290002074
:105100000390402004902A480078059000200690E3
:105110004FF4806007900020089009900A904FF4A7
:1051200000300B9000200C900D900E900F9001A974
:105130001E48FEF723FE00211C48FEF759FD012200
:105140004021194801F0DFFB18483038FEF75CFDBC
:1051500000BF16483038FEF703FE0128F9D04FF0A3
:10516000006001901048001D02901248039000203A
:1051700004901148007805904FF480700A904FF425
:1051800040300B9001A909483038FEF7F7FD0121A6
:1051900006483038FEF72CFD17B000BD0400200093
:1051A0000008024080841E00004C004070600240F5
:1051B000EAA00008180C0020E9A0000800B597B08C
:1051C0000121084600F08EFE0121102000F0BAFEF9
:1051D0000121880500F086FE15A8FEF7C1FE022019
:1051E0008DF8580000208DF85A004FF4806015901B
:1051F00001208DF85B0003208DF8590015A93C486B
:10520000FEF743FE07220A213948FEF786FE394899
:1052100001F082FB11A801F0B1FC37481190002089
:10522000ADF84800ADF84A004FF48060ADF84C008E
:105230000420ADF84E000020ADF8500011A92D4813
:1052400001F032FC10212B4801F048FB012240F212
:105250002441284801F002FC25208DF84000002060
:105260008DF8410001208DF842008DF8430010A810
:1052700000F0F0FA012240211E4801F044FB1F48D3
:10528000FEF7C2FC00BF1D48FEF76AFD0128FAD0F8
:1052900001A8FEF7A1FD4FF0006001901548001D28
:1052A0000290002006900890154803904FF480600B
:1052B00007900020099004901248007805904FF460
:1052C00080700A904FF440300B9000200C900D90AD
:1052D0000E900F9001A90948FEF750FD01210748E3
:1052E000FEF786FC0121034801F001FB17B000BD69
:1052F0000000024000100140A0860100406402400E
:10530000600B0020E4A0000800B597B00121082040
:1053100000F0E8FD0121480400F0F4FD01214805FA
:1053200000F0E0FD15A8FEF71BFE00208DF85A00E6
:105330008DF85B0002208DF8580003208DF859008D
:105340006020159015A95B48FEF79FFD07220521F7
:105350005848FEF7E2FD072206215648FEF7DDFD1C
:10536000554801F0D9FA11A801F008FC53481190F2
:105370000020ADF84800ADF84A00ADF84C000C2014
:10538000ADF84E000020ADF8500011A94A4801F0D8
:105390008BFB1021484801F0A1FA012240F2244180
:1053A000454801F05BFB26208DF8400000208DF879
:1053B000410002208DF8420001208DF8430010A822
:1053C00000F048FA012280213B4801F09CFA3C4859
:1053D000FEF71AFC00BF3A48FEF7C2FC0128FAD0DB
:1053E00001A8FEF7F9FC4FF0006001903248001D63
:1053F0000290002003904020049000200590069029
:105400004FF4806007900020089009900A904FF4B4
:1054100040300B9000200C900D900E900F9001A941
:105420002748FEF7ABFC00212548FEF7E1FB0122EF
:105430004021214801F067FA21481838FEF7E4FBC3
:1054400000BF1F481838FEF78BFC0128F9D001A8CF
:10545000FEF7C2FC4FF0006001901748001D02905B
:105460001848039000200490174800780590002009
:1054700006904FF4806007900020089009904FF448
:1054800080700A904FF440300B9000200C900D90EB
:105490000E900F9001A90A481838FEF76FFC012101
:1054A00007481838FEF7A4FB0121034801F01FFA52
:1054B00017B000BD000C02400044004000CA0800C4
:1054C000A0600240720B0020E6A0000800B597B073
:1054D0000121082000F006FD0121880400F012FDE2
:1054E0000121480500F0FEFC15A8FEF739FD00205B
:1054F0008DF85A0001208DF85B0002208DF85800CD
:105500004FF44070159002208DF8590015A95A48A3
:10551000FEF7BBFC072208215748FEF7FEFC0722D6
:1055200009215548FEF7F9FC544801F0F5F911A896
:1055300001F024FB4FF4E12011900020ADF8480069
:10554000ADF84A00ADF84C000C20ADF84E0000203C
:10555000ADF8500011A9494801F0A6FA012240F225
:105560002441464801F07AFA27208DF840000020B7
:105570008DF841000A208DF8420001208DF843008B
:1055800010A800F067F9012280213C4801F0BBF926
:105590003B48FEF739FB00BF3948FEF7E1FB012825
:1055A000FAD001A8FEF718FC4FF0006001903348D4
:1055B000001D0290002003904020049000200590E0
:1055C00006904FF4806007900020089009900A90A0
:1055D0004FF440300B9000200C900D900E900F90E7
:1055E00001A92748FEF7CAFB00212548FEF700FB6A
:1055F00001224021214801F086F921483038FEF788
:1056000003FB00BF1E483038FEF7AAFB0128F9D083
:1056100001A8FEF7E1FB4FF0006001901748001D64
:1056200002901848039000200490174800780590D5
:10563000002006904FF480600790002008900990A9
:105640004FF480700A904FF440300B9000200C9083
:105650000D900E900F9001A909483038FEF78EFB8F
:10566000012107483038FEF7C3FA0121034801F051
:105670003EF917B000BD0000000C02400048004099
:1056800058600240980B0020E8A0000800B597B0D1
:105690000121202000F056FC0121574800F022FC97
:1056A000082206215548FEF738FC082207215348F6
:1056B000FEF733FC00208DF85A008DF85B000220C5
:1056C0008DF8580003208DF85900C020159015A9B9
:1056D0004A48FEF7DAFB4A4801F01EF94FF4612010
:1056E00011900020ADF84800ADF84A00ADF84C002C
:1056F0000C20ADF84E000020ADF8500011A9404834
:1057000001F0D2F9012240F224413D4801F0A6F90E
:1057100001213B4801F0EBF801228021384801F0DB
:10572000F2F801224021364801F0EDF847208DF8CB
:10573000400000208DF841000A208DF84200012031
:105740008DF8430010A800F085F82E48FEF75CFAAB
:1057500000BF2C48FEF704FB0128FAD04FF0206070
:1057600001902748001D02900020039040200490E3
:105770000020059006904FF480600790002008906C
:1057800009900A904FF440300B9000200C900D903F
:105790000E900F9001A91B48FEF7F0FA002119485E
:1057A000FEF726FA17487838FEF72EFA00BF15489C
:1057B0007838FEF7D5FA0128F9D04FF02060019033
:1057C0000F48001D029010480390002004900F48DD
:1057D000007805904FF480700A904FF440300B90A1
:1057E00001A908487838FEF7C9FA01210548783838
:1057F000FEF7FEF917B000BD0400400000080240AB
:1058000000140140A0640240F60E0020EFA0000842
:1058100008B50121C80200F075FB802001F084FB6F
:105820007F2001F08DFB00208DF8000001208DF815
:10583000030000208DF801008DF80200684600F09A
:1058400009F801F04BFB01F057FB6F2001F04CFB16
:1058500008BD704770B5002100230F22C4781CB327
:10586000174C246804F4E064C4F5E064C4F3072131
:10587000C1F10404E3B20A4144789C40E1B2847867
:10588000144021430C07210E0E4C05786155047815
:1058900004F01F050124AC4005786D11AD0005F141
:1058A000E025C5F8004109E0047804F01F05012453
:1058B000AC40054D0678761145F8264070BD0000D5
:1058C0000CED00E000E400E080E100E0024901436B
:1058D000024A1160704700000000FA050CED00E07C
:1058E00080ED1E0A704710B52DED088B044694ED2F
:1058F000010AD4ED020A20EE200AF0EE40AA94ED4F
:10590000150AB0EE408A94ED1B0AF0EE408A94ED41
:105910001C0AB0EE409A94ED0B0AF0EE409AB0EEFD
:10592000480AFFF7D5F9B0EE6ABA08EE80BAB0EED1
:10593000480AFFF7FFF920EE090AC0EE290A3BEEFC
:10594000200AB0EE40AAB0EE4A0ABDEC088B10BDAA
:1059500010B52DED108B84B0044694ED040AF0EEE2
:1059600040DA94ED050AB0EE40EA94ED0B0AB0EE91
:1059700040AA94ED060AF0EE40AA94ED070AF0EE74
:10598000408A94ED080AB0EE409A94ED090AB0EE10
:1059900040BA94ED0A0AB0EE408A78EE680AB0EE9A
:1059A000600AFFF795F9F0EE40EA78EE490AB0EEAA
:1059B000600AFFF7BFF96EEE80EA79EE4B0AB0EEAF
:1059C000600AFFF7B7F96EEE80EA78EE490AB0EEAA
:1059D000600AFFF77DF9B0EE40FA78EE680AB0EEA3
:1059E000600AFFF7A7F92FEE00FA79EE4B0AB0EE46
:1059F000600AFFF79FF94FEE40EA2EEE8E0AF0EEB6
:105A000040BA78EE680AB0EE600AFFF761F9F0EE8E
:105A100040EA78EE490AB0EE600AFFF78BF96EEEC5
:105A200080EA7AEEE80AB0EE600AFFF783F96EEEDC
:105A300080EA78EE490AB0EE600AFFF749F9B0EE65
:105A400040FA78EE680AB0EE600AFFF773F92FEEBD
:105A500000FA7AEEE80AB0EE600AFFF76BF94FEE53
:105A600040EA2EEEAD0AB0EE40CA78EEC90AB0EEBA
:105A7000600AFFF75FF9F0EE409A78EE680AB0EE40
:105A8000600AFFF725F9B1EE400A20EE290AC0EEC0
:105A90000C0ACDED000A78EE490AB0EE600AFFF775
:105AA00017F920EE290AC0EE2B0ACDED010A78EE97
:105AB000680AB0EE600AFFF73DF920EE0A0A20EE10
:105AC000290AC0EE0C0ACDED020A78EE490AB0EEC2
:105AD000600AFFF72FF9F1EE4A0A20EE200A20EEC5
