:020000040800F2
:1000000008070020390200086D09000811090008DE
:100010006909000873070008831100080000000048
:10002000000000000000000000000000490B000874
:100030007707000800000000FD090008610C0008B7
:10004000530200085302000853020008530200083C
:10005000530200085302000853020008530200082C
:10006000530200085302000853020008530200081C
:10007000530200085302000853020008530200080C
:1000800053020008530200085302000853020008FC
:1000900053020008530200085302000853020008EC
:1000A00053020008530200085302000853020008DC
:1000B0005302000853020008CD0C00085302000848
:1000C00053020008530200085302000853020008BC
:1000D00053020008890E000853020008530200086A
:1000E000530200085302000853020008530200089C
:1000F000530200085302000853020008530200088C
:10010000530200085302000853020008530200087B
:10011000530200085302000853020008530200086B
:10012000530200085302000853020008530200085B
:10013000530200085302000853020008530200084B
:10014000530200085302000853020008530200083B
:10015000530200085302000853020008530200082B
:10016000530200085302000853020008530200081B
:10017000530200085302000853020008530200080B
:10018000530200085302000800F002F800F045F89E
:100190000AA090E8000C82448344AAF10107DA45E2
:1001A00001D100F03AF8AFF2090EBAE80F0013F0EF
:1001B000010F18BFFB1A43F0010318477418000021
:1001C00094180000103A24BF78C878C1FAD85207B2
:1001D00024BF30C830C144BF04680C6070470000C1
:1001E0000023002400250026103A28BF78C1FBD840
:1001F000520728BF30C148BF0B607047642900F028
:10020000D380002070471FB501F0D8FB9DE80300A4
:1002100000F058F91FBD10B510BD00F036FA1146B8
:10022000FFF7F1FF01F0B2FB00F054FA03B4FFF75F
:10023000F2FF03BC01F094FB0948804709480047DE
:10024000FEE7FEE7FEE7FEE7FEE7FEE7FEE7FEE786
:10025000FEE7FEE704480549054A064B70470000E3
:10026000650C00088901000808010020080700202B
:100270000803002008030020704770B5064600F010
:1002800005F9056806F10B0020F00704B4429CBF95
:10029000002070BD2B466A68BAB11068A04210D326
:1002A00004F1080188423CBF5068586007D3516888
:1002B000101941601168091B016058601460101D1D
:1002C00070BD13465268002AE7D12146284600F047
:1002D000E5F80028DED170BD70B50446051F00F0BA
:1002E000D5F80068002C14BF446870BD002C18BFFE
:1002F000AC423CBF20466468F8D301680A18AA42A1
:1003000018BF456003D12A6805461144016028687A
:100310004119A1421CBF6C6070BD616869602168B1
:100320000844286070BD00000FB4044910B503AA4A
:10033000029800F057F910BC5DF814FB180000207B
:100340002DE9F0410E460446002020622046E16877
:10035000884730B3252805D0D4E901219047206A89
:10036000401CF2E7E168204600278847050018D0C6
:10037000A5F14100192802D820354FF40067324614
:10038000294620462760FFF739FF40B1012804D0F5
:10039000F61D26F007060836D8E7361DD6E72846AC
:1003A000DAE7206ABDE8F0812DE9F0410646002435
:1003B00010687529314616A510D0AFF300800028CB
:1003C00002DA404213A507E031688A0701D512A579
:1003D00002E0490704D511A5012401E0AFF3008034
:1003E00000210A2206F1240709E0B0FBF2FCB0FB71
:1003F000F2F302FB1C00303078541846491C0028E8
:10040000F3D123462A463046BDE8F04100F090B8CB
:10041000000000002D0000002B0000002000000064
:1004200010B5203AC0F00B80B1E81850203AA0E88F
:100430001850B1E81850A0E81850BFF4F5AF5FEAC3
:10044000027C24BFB1E81850A0E8185044BF18C976
:1004500018C0BDE810405FEA827C24BF51F8043B1D
:1004600040F8043B08BF7047D20728BF31F8023B71
:1004700048BF11F8012B28BF20F8023B48BF00F805
:10048000012B7047704770477047704700487047AE
:10049000B0000020704770477047704738B5044679
:1004A0000A4600206946AFF30080002808BF38BD27
:1004B00002460099204600F0ABF8012038BD01202B
:1004C00000F0DCB8F8B5AFF30080054600200C461C
:1004D000102000BF0646A819A0420DD93246694631
:1004E0000020AFF30080070008BF00F0C7F80098B5
:1004F000A04218BF0546C419FFF7C8FF05600746AC
:10050000F01D20F007004619284600F00AF8B44212
:1005100008BFF8BDA21B31463868BDE8F84000F0BE
:1005200077B800210160C0E90110704710207047C2
:100530002DE9F0470D4699469246044600F12408FD
:100540000168880604D5E06921F01001216000E00F
:100550000120A84201DD471B00E00027A1697A19AC
:1005600002EB0900081AA0612078C00602D42046D8
:10057000AFF30080002608E0D4E901211AF8060054
:100580009047206A401C761C20624E45F4DB2078A0
:10059000C0060AD52046AFF3008006E0D4E9012169
:1005A00030209047206A401C2062381EA7F10107C6
:1005B000F4DC07E0D4E9012118F805009047206A2F
:1005C000401C2062281EA5F10105F3DC2046AFF394
:1005D00000802078000602D50220BDE8F0870120C7
:1005E000FBE70000074B70B50D467B4400F02FF889
:1005F0000446284600F03EF810B14FF0FF3070BDC1
:10060000204670BD7B13000000487047A800002002
:10061000034640688C46002818BF88423CBF03460A
:100620004068F8D318681844884207D00CF10300DA
:1006300020F00700001D411A521A0146081D0A60E9
:10064000FFF74ABE01694A1C02610878704700B58D
:100650008FB0CDE901310021059105497944CDE9FB
:10066000031011466846FFF76BFE0FB000BD000097
:10067000E5FFFFFF007B00F08000704710B500F041
:1006800037F8BDE8104000F02EB87546FFF7BCFF04
:10069000AE4605006946534620F00700854618B06F
:1006A00020B5FFF7D7FDBDE820404FF000064FF022
:1006B00000074FF000084FF0000B21F00701AC4697
:1006C000ACE8C009ACE8C009ACE8C009ACE8C009B6
:1006D0008D46704710B50446AFF300802046BDE854
:1006E0001040FFF7A3BD002801D001F039B97047D1
:1006F00010B5012805D0002103A000F021F8012049
:1007000010BD09A1F8E7000053494752544D454D2B
:100710003A204F7574206F662068656170206D65A2
:100720006D6F7279000000003A2048656170206D9D
:10073000656D6F727920636F727275707465640095
:1007400070B505460C460A2000E06D1C01F00AF960
:1007500035B128780028F8D102E0641C01F002F9D4
:1007600014B120780028F8D1BDE870400A2001F0CB
:10077000F9B800BFFEE7704710B504466FF00400FB
:1007800000F05AFA2046E11704EB5171C1F3C7019A
:10079000014A117010BD00001000002070B5034622
:1007A0004FF4077493FBF4F0C5B293FBF4F004FB31
:1007B000103086B207E04FF47A7104FB01F000F0CC
:1007C0000DF8681EC5B2002DF5D12EB14FF47A7127
:1007D00006FB01F000F002F870BD00000F49097837
:1007E00041434FF0E02251610021916111460969B6
:1007F00041F00101116100BF4FF0E021096901F4EE
:1008000080310029F8D04FF0E021096921F0010181
:100810004FF0E0221161002191617047100000202B
:10082000F0B50A4600210023002400BF3DE0012569
:1008300005FA01F3156805EA03049C4234D1056802
:100840004F000326BE40B543056015794E00B54004
:100850000668354305601579012D02D01579022D02
:1008600016D185684F000326BE40B5438560557993
:100870004E00B540866835438560456801268E4048
:10088000B5434560456896798E40B6B235434560BC
:10089000C5684F000326BE40B543C560D5794E00FC
:1008A000B540C6683543C560491C1029BFD3F0BDAB
:1008B000F0B5002300244D07ED0E02FA05F3CE102B
:1008C00000F1200555F826504E07F70E0F26BE40C2
:1008D000B543CF1000F1200646F82750CE1000F1A6
:1008E000200555F8265045EA0304CE1000F12005F6
:1008F00045F82640F0BD4FF6FF71016000210171FF
:1009000041718171C171704742694A4042617047CB
:1009100000BFFEE710B540210148FFF7F5FF10BD0D
:100920000000024010B580210148FFF7EDFF10BD27
:10093000000002401CB50121084600F061F80120CA
:100940008DF8040000208DF80600C02000900120E2
:100950008DF8070002208DF8050069460148FFF771
:100960005FFF1CBD0000024000BFFEE770470000B3
:1009700070B5002100230F22C4781CB3174C2468E3
:1009800004F4E064C4F5E064C4F30721C1F1040495
:10099000E3B20A4144789C40E1B284781440214398
:1009A0000C07210E0E4C05786155047804F01F05E4
:1009B0000124AC4005786D11AD0005F1E025C5F8C6
:1009C000004109E0047804F01F050124AC40054D06
:1009D0000678761145F8264070BD00000CED00E069
:1009E00000E400E080E100E002490143024A1160B6
:1009F000704700000000FA050CED00E070470000B1
:100A000029B1064A12680243044B1A6004E0034A03
:100A100012688243014B1A60704700003038024070
:100A200029B1064A12680243044B1A6004E0034AE3
:100A300012688243014B1A60704700004038024040
:100A400029B1064A12680243044B1A6004E0034AC3
:100A500012688243014B1A6070470000443802401C
:100A6000F0B5002100220024022500260223324F87
:100A70003F6807F00C0121B1042905D0082937D1BE
:100A800005E02E4F076036E02D4F076033E02A4F18
:100A90003F1F3F68C7F38056274F3F1F3F6807F04F
:100AA0003F036EB1264FB7FBF3F7DFF88CC0ACF114
:100AB000040CDCF800C0CCF3881C07FB0CF40CE041
:100AC0001E4FB7FBF3F7DFF870C0ACF1040CDCF895
:100AD00000C0CCF3881C07FB0CF4174F3F1F3F6886
:100AE000C7F301477F1C7D00B4FBF5F7076002E008
:100AF000124F076000BF00BF0F4F3F6807F0F001C3
:100B00000909104F7A5C0768D74047600A4F3F6871
:100B100007F4E051890A0B4F7A5C4768D740876039
:100B2000054F3F6807F46041490B064F7A5C476800
:100B3000D740C760F0BD0000083802400024F40030
:100B400000127A0000000020704700000CB5002061
:100B5000019000903448006840F4803032490860C9
:100B600000BF3148006800F4003000900198401C3C
:100B70000190009818B90198B0F5A04FF1D12A481A
:100B8000006800F4003010B10120009001E0002066
:100B900000900098012846D123484030006840F07A
:100BA00080502149403108602048006840F44040AE
:100BB0001E4908601C48083000681B49083108605D
:100BC0000846006840F4004008600846006840F4A9
:100BD000A05008601648091F0860081F006840F010
:100BE0008070091F086000BF0F48006800F00070A7
:100BF0000028F9D040F205700E4908600A48083014
:100C0000006820F0030008490831086008460068C1
:100C100040F00200086000BF03480830006800F0A0
:100C20000C000828F8D10CBD0038024000700040CC
:100C300008544007003C0240042808D14FF0E0214E
:100C4000096941F004014FF0E022116107E04FF023
:100C5000E021096921F004014FF0E02211617047A1
:100C60007047000010B51548006840F47000134943
:100C700008601348006840F0010011490860002036
:100C80000F49083108600E4800680E4908400C49B9
:100C900008600D48091D0860081F006820F48020C6
:100CA000091F0860002006490C310860FFF74EFF5D
:100CB0004FF0006001498039086010BD88ED00E008
:100CC00000380240FFFFF6FE1030002410B501216D
:100CD000054800F063F8012801D100F03DFD012135
:100CE000014800F040F810BD000800407FB50546FF
:100CF0000C4601210420FFF793FE184800F068F825
:100D000001A800F0B1F80020ADF80C00ADF8060025
:100D1000681E0290601E80B2ADF8040001A90F4861
:100D200000F060F801210D4800F01AF80122114688
:100D30000A4800F044F81E208DF8000003208DF8CA
:100D400001008DF8020001208DF803006846FFF7CE
:100D50000FFE0121014800F009F87FBD00080040A6
:100D6000CA4302827047CA430282704721B1028897
:100D700042F00102028004E002884FF6FE731A403E
:100D8000028070470146486A704702460020138A75
:100D90000B400BB1012000E00020704730B5024647
:100DA000002000230024158A05EA0103958905EA3D
:100DB000010413B10CB1012000E0002030BD1AB1D4
:100DC00083890B43838102E083898B43838170474E
:100DD00001894FF6F872114001817047C162704776
:100DE0004162704700220288184B98420ED0184B7F
:100DF00098420BD0B0F1804F08D0164B984205D0E6
:100E0000154B984202D0154B984204D14FF68F7380
:100E10001A404B881A43124B984207D0114B984204
:100E200004D04FF6FF431A400B891A4302804B68E7
:100E3000C3620B880385054B984202D0044B98424D
:100E400001D18B7A03860123838270470000014021
:100E5000000401400004004000080040000C004075
:100E600000100040001400404FF0FF3141600021AD
:100E70000180018141808172704700000148007843
:100E8000704700001500002010B52021284800F010
:100E9000C7F801284BD1264800F05EF9C4B22548B6
:100EA000007820B101280AD002283ED117E0402C5A
:100EB00004D101201F49087000F0A0F835E00D2C86
:100EC00003D102201B49087008E01B481B49097820
:100ED00044541A480078401C1849087025E00A2C30
:100EE0000DD100201449154A12788854134908700E
:100EF000022000F083F800200E49087014E00D2055
:100F00000D490E4A127888540C480078401C0B4951
:100F1000087009480978445408480078401C07497B
:100F2000087001200349087000BF00BF00BF10BD5A
:100F30000010014014000020400000201C00002090
:100F400010B588B0044601211020FFF779FD01217A
:100F50000846FFF755FD06A8FFF7CDFC02208DF8E7
:100F60001C0000208DF81E004FF4C0600690012088
:100F70008DF81F0002208DF81D0006A91D48FFF7FF
:100F80004FFC072209211B48FFF792FC07220A2188
:100F90001848FFF78DFC02A800F0E7F802940C2037
:100FA000ADF812000020ADF81000ADF80E00ADF85D
:100FB0000C00ADF8140002A90F4800F063F80122FC
:100FC00040F225510C4800F038F825208DF8040037
:100FD00001208DF8070003208DF8050002208DF810
:100FE000060001A8FFF7C4FC0121034800F00CF83B
:100FF00008B010BD00000240001001400149087017
:10100000704700001500002021B1828942F400528F
:10101000828104E082894DF6FF731A408281704715
:1010200002460020B1F5007F00D100BF13880B40BD
:101030000BB1012000E000207047F0B5034600240A
:1010400000260025002040F66A17B94200D100BFF3
:101050001846C1F3421401F01F06012707FA06F5EE
:10106000012C01D10C3004E0022C01D1103000E041
:1010700014301AB107682F43076002E00768AF43D6
:101080000760F0BD2DE9FF4705460E460024A14646
:1010900000BFA046B08900B100BF2C8A24F44054A0
:1010A000F08804432C82AC8941F20C608443B08800
:1010B00031890843718908430443AC81AC8A24F424
:1010C0004074B0890443AC826846FFF7C9FC2048ED
:1010D000854202D01F48854202D1DDF80C9001E024
:1010E000DDF80890A88900F4004040B109EBC90080
:1010F00000EB091031684900B0FBF1F707E009EB9C
:10110000C90000EB091031688900B0FBF1F76420D9
:10111000B7FBF0F004012009642101FB1078A889D5
:1011200000F4004040B1322000EBC800B0FBF1F009
:1011300000F00700044308E0322000EB08106421AF
:10114000B0FBF1F000F00F0004432C81BDE8FF87F5
:10115000001001400014014001468888C0F30800D7
:101160007047C1F30802828070474FF41651016046
:1011700000218180C18001810C2141810021818178
:10118000704700BFFEE701460020302905DB392902
:1011900003DCA1F13002D0B20EE0412905DB462983
:1011A00003DCA1F13702D0B206E0612904DB662935
:1011B00002DCA1F15702D0B27047000010B504461E
:1011C000082C21D2DFE804F02004080C1014181CAD
:1011D0000EA0FFF7A9F817E010A0FFF7A5F813E09D
:1011E00014A0FFF7A1F80FE016A0FFF79DF80BE0A1
:1011F00018A0FFF799F807E019A0FFF795F803E0AA
:101200001AA0FFF791F800BF00BF10BDBAAFCAFD2A
:10121000B8F1CABDB4EDCEF30D0A000046756E6399
:10122000546162D6D0BAAFCAFDB8F1CABDD3D0CE30
:10123000F30D0A00BAAFCAFDC3FBB9FDB3A40D0A92
:1012400000000000BAAFCAFDCEB4D5D2B5BD0D0ABC
:1012500000000000B2CECAFDB9FDB6E00D0A0000E4
:10126000B2CECAFDB9FDC9D90D0A0000B2CECAFD81
:10127000B4EDCEF30D0A00000FB42DE9F04F89B0A4
:101280009DF849609DF848509DF84A0007900896DF
:10129000089EB000FEF7F1FF0446002706E013A801
:1012A00050F8270044F82700781CC7B2B742F6DB95
:1012B0004FF0000900F03EFA0B2E0CD2DFE806F0EA
:1012C000060C131B242D384554657800524951F8FB
:1012D00035008047814680E04F4A52F8351020683B
:1012E0008847814679E04C4B53F83520D4E900011A
:1012F0009047814671E0DFF820C15CF8353094E812
:1013000007009847814668E0DFF80CA15AF835C01D
:1013100094E80F00E04781465FE020690090DFF825
:10132000F8A05AF835C094E80F00E047814654E031
:10133000D4E90401CDE90001DFF8DCA05AF835C09A
:1013400094E80F00E047814647E0D4E90412A06921
:10135000CDE900120290DFF8C0A05AF835C094E839
:101360000F00E047814638E0D4E90423D4E90601C0
:10137000CDE90023CDE90201DFF89CA05AF835C081
:1013800094E80F00E047814627E0D4E90632216A5D
:101390006069CDE902320491019020690090DFF884
:1013A00078A05AF835C094E80F00E047814614E071
:1013B000D4E90732616AA069CDE903320591029050
:1013C000D4E90401CDE90001DFF84CA05AF835C09A
:1013D00094E80F00E047814600BF00BF00F000F92D
:1013E00080460A20B8FBF0F100FB118AB8FBF0FB45
:1013F0005246594609A0FEF797FF0798012803D1E6
:1014000049460BA0FEF790FF2046FEF765FF09B0A6
:10141000BDE8F00F5DF814FB2000002052756E54FB
:10142000696D653A2025642E25646D730D0A0000F0
:1014300052657476616C203D2025640D0A00000021
:101440000146002005E00A782C2A01D1421CD0B2C6
:10145000491C0A78002AF6D1704730B504460B467D
:1014600015462146012D0AD100BF087808B902208F
:1014700030BD491C11F8010C2028F6D100E000BF56
:1014800000BF00220CE008789854491C501CC2B2DE
:10149000087808B90120EBE71E2A01D10320E7E70D
:1014A00008782828EFD104E0087808B90120DFE7A0
:1014B000491C08782928F7D10020985400BFD7E7A5
:1014C00004207047FCB505460E462F46002405E073
:1014D00038780DF804007F1C601CC4B2052CF7DBC3
:1014E00000208DF8050003A1684600F01CFA30705A
:1014F0000020FCBD766F6964200000002DE9F843F0
:1015000080460D46687810B90020BDE8F88344464F
:1015100000BF641C14F8010C2828FAD195F801903A
:10152000002613E06946204600F07AF80746281D99
:10153000009940F826100FB13846E6E700E0641C39
:1015400014F8010C2C28FAD1701CC6B24E45E9DB08
:101550000020DAE72DE9F04105460E4617462C46F5
:1015600005E0641C207810B90120BDE8F0812078E6
:101570002828F6D14FF0000817B1012F24D111E02F
:1015800014A1204600F0CFF910B94FF0000808E090
:1015900000232046FFF754FF0346581C00F0FF08C5
:1015A00000BF11E00CA1204600F0BDF910B94FF0CA
:1015B000000808E000232046FFF742FF0346581CBE
:1015C00000F0FF0800BF00BF00BF86F800800020C9
:1015D000CBE700002829000028766F696429000005
:1015E00010B5002401210D48FFF7CFFB012802D1DF
:1015F0004FF6FF7004440948FFF7C4FB044401217F
:101600000648FFF7ADFB4FF47A710448FFF7E6FB9D
:1016100000210248FFF7E4FB204610BD000800400F
:101620007FB506460C4603AA6946304600F00DF821
:10163000054615B1284604B070BD9DF80C106846EB
:1016400000F034F920602846F5E72DE9F0418046A6
:101650000D4616464346404600F03EF80746012F29
:1016600002D19B1C307002E00FB9002030700024C2
:1016700010E0187810B90120BDE8F08118783946DB
:1016800000F03AF808B90720F6E718782855601CEA
:10169000C4B25B1C18782C2802D018782928E8D10D
:1016A0000020285500BFE7E70246012002E0504332
:1016B0004B1ED9B20029FAD1704710B5044604EB8D
:1016C000C40000EB04104FF6FF7202EA80014FF4F1
:1016D0007A70FFF70BFB10BD0246114608783028E0
:1016E00008D1491C0878782802D00878582801D1F8
:1016F000012070470020FCE7024681B1012915D185
:10170000302A01DB392A07DD612A01DB662A03DD85
:10171000412A03DB462A01DC0120704706E0302A1B
:1017200003DB392A01DC0120F7E700BF00BF0020FE
:10173000F3E7000010B501210648FFF711FB4FF653
:10174000FF710448FFF74AFB00210248FFF748FBFE
:1017500010BD00000008004010B59EB0FFF78EFBE2
:10176000022801D01EB010BD002416A9364800F092
:10177000EDF80020159064B90022694616A8FFF71D
:101780006CFE044624B915A9684600F061F80446C9
:1017900000BF0020149024BB0790002207A916A8C0
:1017A000FFF7D8FE044654B928499DF8542001EBB0
:1017B000C2010122486814A9FFF7CCFE04463CB9D7
:1017C0009DF81C009DF85010884201DD052407E0BB
:1017D00034B99DF81C009DF85010884200DA0624A8
:1017E00000BF002013904CB918499DF8542001EB1C
:1017F000C201486813A9FFF765FE044684B908A929
:1018000016A8FFF77BFE04469DF854008DF82000D3
:101810009DF850008DF821009DF84C008DF82200B5
:101820001CB12046FFF7CAFC08E01C220CA9684640
:10183000FEF7F6FD08A80FC8FFF71EFD0020FFF712
:10184000DDFB00BF8EE700004000002020000020EC
:101850002DE9F04389B080460D460026FFF730FEA3
:101860000746B146002413E00F4901EBC4010122F1
:10187000486801A9FFF7F1FD064606B10AE001A993
:10188000404600F050F808B9A14603E0601CC4B21D
:10189000BC42E9DB00BFBC4200D1042685F80090C1
:1018A000304609B0BDE8F083200000202DE9F04368
:1018B00006468946002401E0601CC4B2305D002861
:1018C000FAD100270025B9F1000F15D0B9F1010FA9
:1018D00025D10EE0705DFFF756FC8046601EC1B258
:1018E0001020FFF7E1FE08FB0077601EC4B2681C01
:1018F000C5B2002CEED112E00EE0705DFFF743FCA4
:101900008046601EC1B20A20FFF7CEFE08FB0077BA
:10191000601EC4B2681CC5B2002CEED100BF00BF6F
:101920003846BDE8F083024607E010780B7898420D
:1019300001D001207047521C491C10780028F4D1B6
:10194000087808B10120F5E70020F3E703E002780A
:101950000A70401C491C0278002AF8D10A707047AE
:1019600000BF704700BF704770B504460D4600BF0A
:1019700080210548FFF754FB0028F9D0A1B20248A6
:10198000FFF7EFFB204670BD00100140A820FEF7D6
:10199000F3FE4FF4E130FFF7D3FA4FF4A060FFF706
:1019A00023F85420FFF789FEFEF7C4FF05E04FF44B
:1019B0007A70FEF7F3FEFEF7ADFFF8E74FF04070E8
:1019C000E1EE100A70470000766F6964204C4544D0
:1019D000325F546F67676C6528766F696429000011
:1019E000766F6964204C4544335F546F67676C655C
:1019F00028766F6964290000766F69642044656CFD
:101A000061795F6D732875696E7431365F74206E0D
:101A10006D732900766F69642044656C61795F7528
:101A2000732875696E7431365F74206E7573290082
:101A3000501A00080000002040000000C401000807
:101A4000901A000840000020C8060000E0010008CD
:101A50000000000001020304010203040607080954
:101A60000000000000000000000000000000000076
:101A700015090008C819000825090008E019000820
:101A80009D070008F8190008DD070008141A00086F
:0400000508000239B4
:00000001FF
